:101000004073002051D201000F87020025D2010059
:1010100025D2010025D2010025D2010000000000E8
:101020000000000000000000000000004DCA0100A8
:1010300025D2010000000000F9C9010025D20100FD
:10104000FDCA010003970200FDCA0100FDCA0100AC
:10105000FDCA0100FDCA0100FDCA0100FDCA010070
:10106000B1960200FDCA0100FDCA0100E996020026
:10107000FDCA0100FDCA0100FDCA0100FDCA010050
:10108000FDCA0100FDCA0100FDCA0100FDCA010040
:10109000FDCA0100FDCA0100FDCA0100FDCA010030
:1010A000FDCA0100FDCA0100FDCA0100FDCA010020
:1010B000FDCA0100FDCA0100FDCA0100FDCA010010
:1010C000FDCA0100FDCA0100FDCA0100FDCA010000
:1010D000FDCA0100FDCA0100FDCA0100FDCA0100F0
:1010E000FDCA0100FDCA0100FDCA0100FDCA0100E0
:1010F000FDCA0100FDCA0100FDCA0100FDCA0100D0
:1011000053B94AB9002908BF00281CBF4FF0FF316E
:101110004FF0FF3000F00CB8ADF1080C6DE904CED3
:1011200013F0FAFBDDF804E0DDE9022304B07047B8
:10113000704700BF1FB51A4C207A8DF80100E07986
:101140008DF80000A079ADF804006079ADF80200D8
:1011500068460CF0BDFE08B1A7211CE0E0680290D3
:1011600002A80CF0CBFE08B1AB2114E00D480068DA
:10117000039003A817F05AF908B1AF210BE0607E85
:101180000CF0EEFE08B1B82105E0207E0CF0E2FE86
:10119000002803D0B921032000F034FA1FBD00005D
:1011A000D00A0020D01600002DE9FF4781460C46EA
:1011B000C01C90461146002220F00300CDE9000239
:1011C0000292039222788DF8052062788DF806202D
:1011D000A2788DF80720E2788DF8082022798DF822
:1011E0000920A27D8DF80A20E27E8DF80C20227F56
:1011F0008DF80D201F4A527912B122798DF80B20FB
:1012000001B1002001A900F01BFC00990026084450
:1012100000902078617835460844C7B208E0237A08
:10122000E279A179607914F07DFC6D1C0644EDB281
:10123000BD42F4D30098C01C20F003000090B8F128
:10124000000F00D000203246394600F04DFE0099D4
:101250004246084400902146684600F00DF8009888
:10126000C01D20F00700009004B0A0EB0900BDE80D
:10127000F087000028000020F8B50446887816465C
:101280000D4670B12068C01C20F0030020606B8AFE
:10129000EA78A97806B1002000F0C4FE216808446D
:1012A0002060494FF87898B1287C88B1387908B126
:1012B000FF2200E025222068C01C20F003002060EF
:1012C000297C06B1002000F041FF2168084420601D
:1012D0003E48036873B1287960B12068C01C20F0D3
:1012E000030020602A7D297906B1002098472168F3
:1012F00008442060364802686AB1687D58B12068A9
:10130000C01C20F003002060697D06B100209047DA
:101310002168084420602F48D0F800C0BCF1000FBD
:1013200011D0A87D78B12068C01C20F00300206097
:10133000697E00912B7EEA7DA97D06B10020E04701
:10134000216808442060787978B1287968B12068EC
:10135000C01C20F003002060AA7E297906B100207D
:1013600000F02EFF216808442060687F4FF48C77DE
:1013700068B12068C01C20F003002060CEB1697FF6
:1013800000203A4614F0F1FB216808442060A87F51
:1013900000280DD02068C01C20F0030020606EB132
:1013A000A97F00203A4614F0E0FB21680844206041
:1013B000F8BD0FF009FA697F2068E2E70FF00AFA3A
:1013C000A97F2068EEE700002800002034000020FC
:1013D0003C0000203800002010B528B11422044938
:1013E00018F0B9F8002010BD6FF0150010BD000016
:1013F000F41600002DE9F0416FF02C06002871D1A1
:101400003B4C607810B1B011BDE8F08129B36FF0AA
:101410001500002AF8D0374B0E299D7862D2DFE8FC
:1014200001F061070A0D1D203E4626494C512B3024
:10143000107818704AE01078587047E091780029C9
:10144000E2D0D1780029DFD011781B29DCD3517884
:101450001B29D9D31068C3F8050037E01068D8609D
:1014600034E01178DA789142CED399702EE0117879
:10147000A942C9D8D97029E01178A942C4D8997570
:1014800024E011780029BFD05178F929BCD800296F
:10149000BAD01088A3F817009078587616E0E17853
:1014A00011B111780229AFD3107818740EE01088AA
:1014B00058820BE01078187108E011780229A3D344
:1014C000197503E0117808299ED859750122094938
:1014D0000020FFF769FEB0F5803F05DB6FF00B00E1
:1014E00092E7FFE730468FE70121A1708CE700000B
:1014F00028000020D00A002010B5074C607820B1E9
:101500000DF098F8207813F067F800F0ABFE00F0CB
:1015100083FF0020607010BD2800002070B50C46CD
:10152000050002D00CB1600702D06FF0150070BD4D
:1015300000F014F9A8B1284613F014F80A4D00225F
:101540000A4928702046FFF72FFE17F0E4FC00211F
:1015500028780DF04BF8FFF7EDFD012068700020B2
:1015600070BD4FF0FF3070BD28000020D00A002071
:1015700030B589B005000CD012F09AFF4FF0FF345F
:1015800020B112F02DFEB0F5FA7F05D9204609B042
:1015900030BD6FF01500FAE7154C1648A56000F055
:1015A0001DFA00206070A070E0702071607101462B
:1015B0002022684618F049F820220F49684617F0A3
:1015C000CAFF202269460D4817F0C5FFEFF31084CB
:1015D00072B600F055FE0A4800F02AFF18B1C52186
:1015E000032000F00FF804B962B60020CFE7000036
:1015F0002800002035110000D4160000D00A002079
:10160000891700000EB572B6154A9568DDB1002243
:1016100003466E460A2403E0B0FBF4F0521CD2B23B
:101620000028F9D1B0540AE0D8B2B0FBF4F7B3FB0C
:10163000F4F304FB1700521ED2B23030B054002A2B
:10164000F2D13046A847BFF34F8F06480168064ADB
:1016500001F4E06111430160BFF34F8F00BFFDE76C
:10166000280000200CED00E00400FA05064810B543
:1016700081784078014302D04FF0FF3010BD0CF06C
:10168000E9FF002010BD000028000020074810B529
:1016900081784278114302D04FF0FF3010BD012114
:1016A000C17001710CF0E8FF002010BD280000207F
:1016B000064810B581784078014302D04FF0FF30E2
:1016C00010BD17F022F8002010BD000028000020F7
:1016D0000100000001010100001B1B0302000000CB
:1016E0004C1D000003001F00020000014900010022
:1016F00000000000D80C2D2F36AEE25C8026804C16
:101700003F4D16535096C773054A10B5526812B133
:10171000BDE81040104792210420FFF773FF00003E
:10172000F00A0020054A10B5126812B1BDE8104059
:1017300010478C210420FFF765FF0000F00A00200D
:10174000054A10B5926812B1BDE8104010479821C3
:101750000420FFF757FF0000F00A00200548016849
:1017600029B1416819B1806808B101207047002093
:1017700070470000F00A002002490DC881E80D0002
:1017800000207047F00A0020F8B5124C00262568AA
:1017900011E00098022802D003280CD106E020684E
:1017A00010B10020266005E028210CE0206868B117
:1017B00001202660A847684600F000FE0028E8D017
:1017C000052805D035210420FFF71CFF2D21FAE75D
:1017D000F8BD0000400000202DE9FC41254E0546E3
:1017E000001D06F584773060387858B1BA783C46E9
:1017F000791C2846921C17F0AEFE002020700420B1
:10180000BDE8FC811B4802F013FC0446022804D00A
:10181000042C07D0082C27D02AE01649284613F0BC
:10182000CBF925E030780A2804D105213E2000F0CC
:1018300023F860B10F49284613F023FA0028D3D0CB
:10184000A978287800F018F80028CDD010E0B088EA
:10185000ADF8000001A9684613F0A5FE0028C3D02A
:10186000A7210820FFF7CEFE0249284613F0D2F93F
:101870002046C5E7FC0A002070B50C46054600F07E
:101880004BF8002802D03E2D01D0012070BD122C53
:1018900006D106480178022902D040780028F5D008
:1018A0002046BDE8704000F049B80000E803002081
:1018B0000149487070470000E803002070B50A78BD
:1018C00082703AB3012A25D81323037000230AE05B
:1018D00001EB430400EB4305A678EE706488240A0C
:1018E0005B1C2C71DBB29342F2D300230BE000BFF0
:1018F00001EB430500EB43042E796671AD882D0A98
:101900005B1CA571DBB29342F2D3012101EB820093
:10191000C0B270BD002070BD402803D2401EC1B2CD
:10192000054805E0FF2805D04038C1B2024808301C
:1019300013F01ABD012070474C000020401EC1B2B8
:10194000014813F011BD00005C00002010B5074AEB
:101950000168064B91614068D0611C681832A14350
:10196000116059688843506010BD00004400002099
:10197000064A016891604068D060083241F48C21C9
:101980001160034908435060704700004400002084
:10199000F807400207484FF0FF3100220160C90CF0
:1019A000416000F108011F200A604A600831C1E966
:1019B000000270474C00002010B5FFF7EBFF00203D
:1019C000FFF776FF16F09AFE04460348006800B160
:1019D0008047204610BD00006400002001490860D7
:1019E0007047000064000020022101804180002136
:1019F0000171D821417142F60C51C18001498160C9
:101A0000002070472F36AEE210B5092804D340F20B
:101A100003211720FFF7F6FD0149085C10BD000007
:101A2000080D0020054A10B5515C814204D840F2EF
:101A3000B2211720FFF7E6FDC0B210BD080D00204F
:101A40002DE9F84304468A7848780244FF2A02D9EF
:101A500040F2AD1120E00A78824202D940F2B11181
:101A60001AE00094DCB1002691F8018091F802C0E0
:101A7000087A0CEB0802814610444B7A4A791844E4
:101A8000C5B2AA4200D91546C878A84200D9054671
:101A9000A70706D04FF4E5711720FFF7B3FD012625
:101AA000E2E71A4F87F8008087F801C0B87008791C
:101AB000F8703A7188797871C879B87187F80790A9
:101AC0003B723146684600F01BF900210B46009836
:101AD000C01C20F00300009066B907EB8102106380
:101AE000002005E0D2F830C04CF82030401CC0B2D5
:101AF000A842F7D30098491C00EB8500C9B20090BA
:101B00000929E4D3001BBDE8F8830000080D00207C
:101B100070B50446857900F02FF902460C48E1794A
:101B200000EB85000EE0036B53F8213043B14A1CF3
:101B3000E271A180006B50F821002060002070BD90
:101B4000491CC9B29142EED3E171052070BD00007D
:101B5000080D0020F0B4054611B1002038B901E0AD
:101B60000120FBE7012902D0002038B901E0012063
:101B7000FBE7022902D0002038B901E00120FBE791
:101B8000032902D0002038B901E00120FBE7042935
:101B900002D0002038B901E00120FBE7072902D07C
:101BA000002038B901E00120FBE7082902D000201D
:101BB00038B901E00120FBE7052902D0002078B9FF
:101BC00001E00120FBE706290AD00020002826D0EA
:101BD000154F00230129387804D0082904D005E0E6
:101BE0000120F3E7034601E07A78831807EB8106CA
:101BF00000224FF6FF747F5C0AE0D018D6F830C0A0
:101C000080B25CF820C0BCF1000F04D0521C92B22C
:101C10009742F2D820462880A04202D10020F0BC92
:101C20007047F0BC00F034B8080D00202DE9F041F9
:101C30000746A0F57F400C4643F20206FF3820D04D
:101C4000092C02D30720BDE8F081384600F048F89F
:101C5000050016D00C48294650F8242038469047F5
:101C60000A48002100EB8406306B40F8271020461C
:101C700000F078F802462946F06813F00FFF0020C4
:101C8000E1E73046DFE70000BC1D0000080D002042
:101C900070B50E46054613F03BFF58B10F4800EBF8
:101CA0008604206B50F8250038B14FF4C571172019
:101CB000FFF7A8FC40F28911F9E7E06800280BD093
:101CC000304600F04FF80146E06813F08FFE002820
:101CD00002D0216B41F8250070BD0000080D0020E6
:101CE00070B50C46054613F013FF002805D00348D5
:101CF00000EB8400006B50F8250070BD080D00203B
:101D00002DE9F843164F8846054600242868C01C74
:101D100020F003002860204600F024F8395D41439C
:101D2000B8F1000F01D0002000E02868009018B141
:101D300000261EB1002002E00126FAE7684613F0F3
:101D400086FE1EB907EB8401009ACA602968641CEC
:101D50000844E4B22860092CD8D3BDE8F883000019
:101D6000080D0020034931F810004FF6FC71C01C2B
:101D700008407047E01D00000F4B18785978084460
:101D8000197A0844C2B29878824200D31046D978B2
:101D9000884200D208461A79904200D210465979FA
:101DA000884200D208469A79904200D21046D979EA
:101DB000884200D208467047080D0020E5780100EF
:101DC00087750100FD6C0100018E0100EF8E01009E
:101DD000DF8E0100F58E01005D7901003779010089
:101DE0007803080460019000A80030011800680022
:101DF000C80000002DE9FF4F244C064681B0206842
:101E00009A46934658B1017AB14203D9406850F8D6
:101E1000260040B143F2020005B0BDE8F08FA521D5
:101E20001820FFF7EFFB1946029813F094FE804646
:101E300058460E9913F085FE054608EB0500001D77
:101E400087B22068A1463946006813F0CFFD040030
:101E50001AD0678025802946201D0E9D07465A46C8
:101E60000923009513F038FD2088414638440A23A1
:101E7000029ACDF800A013F02FFDD9F800004068B9
:101E800040F826400020C7E70420C5E7680000208E
:101E900070B5144C23688BB1197A814212D95A68F3
:101EA00052F8201071B1002542F820504A88186875
:101EB00013F0F4FD216800200A7A0CE0C6211820F6
:101EC000FFF7A0FB43F2020070BD4B6853F82030CF
:101ED00033B9401CC0B28242F7D8086813F0D3FD72
:101EE000002070BD680000202DE9F0410D4604007F
:101EF00090464FF0000606D00027A00705D08621A7
:101F00001820FFF77FFB0127F7E7CDB1114600202E
:101F100013F09DFD0C3000EB85068FB90A4F04F1DC
:101F20000C00AA003C602572606000EB8500206018
:101F30000021606817F089FB4146386813F087FD7F
:101F40003046BDE8F081000068000020094910B566
:101F500002460968002049B10B7A934205D94968C5
:101F600051F82210002900D0081D10BDEC211820C6
:101F7000FFF748FB680000200A4910B502460968CF
:101F8000002059B10B7A934207D9496851F82210C1
:101F9000002902D031F8040B084410BDFA211820A2
:101FA000FFF730FB680000202DE9F0411C4E45682A
:101FB00004460022A1B101206070708883080020CF
:101FC00004EB400104EB80060A830B8400FB035101
:101FD00071602118401C0A750428F1D3BDE8F08116
:101FE0006270002004EB40010A830A8404EB800144
:101FF0004A602118401C0A750428F3D3708813F036
:1020000049FE0746708813F04CFE6560208429184D
:10201000A1606784E560A0842161E784DEE70000B9
:102020006C0000202DE9F04768B100261144DFF86C
:102030009C80CFB2002488F80070810705D04E2123
:102040000920FFF7DFFA0126F0E71F2B04D84FF62F
:10205000FF7101EA830509E05900FF2B0CD903F158
:10206000FF02B2EB430F00D211468DB24FF6FC7166
:10207000ED1C0D4036B109E07C22B2EB430FF4D3E6
:102080007C21F2E7C8F80400A8F8025007EB8701AA
:1020900004EBC10200214FF001090FE05EB9D8F84E
:1020A000044001EB810300EB020C04F8339004EBD5
:1020B000C303C3F804C0491C2A44C9B2B942EDD3D2
:1020C000D21D22F00700BDE8F08700006C00002060
:1020D00070B511480024214602780CE0456801EBF8
:1020E000810315F8333023B101EB810105EBC10405
:1020F00003E0491CC9B29142F0D344B10025A57058
:1021000001212046FFF750FF2570204670BDA92110
:102110000920FFF777FA00006C000020044810B592
:102120004088840813F0BDFD844200D3204610BDD2
:102130006C000020014840787047000074000020C7
:102140000148406870470000740000202DE9F84302
:102150000C46074616462E2110460D46224613F021
:1021600004FC804657B13846414632462B4600941F
:1021700013F0B2FB03484760047046704046BDE868
:10218000F88300007400002002484278017840681B
:10219000FFF7DCBF7400002010B5084C39B10621F0
:1021A000FFF740FCE288E16800FB021010BD05214A
:1021B000FFF738FC6288A168F6E700007C00002089
:1021C000F8B50E46044617460321F72013F02AFE01
:1021D0004FF6FC71C01C00EA0105C4B1A00703D092
:1021E00071211920FFF70EFA0A48C460C580002447
:1021F0000BE001212046FFF7CFFF0323F7222946FA
:10220000009713F009FE641CA4B2B442F1D306FB9C
:1022100005F0F8BD7C00002030B50D490120486074
:10222000821EC1F808230B4988600023C1F80032E0
:10223000C1F80823084C2360251D28608860C1F878
:1022400008232360286006490448086030BD000068
:1022500000E0004000F0004000F500400000F63FC4
:1022600008F5014010B5FFF7D7FF13F0FBFD034958
:102270000148086010BD00000000F63F08F501406D
:1022800010B5FFF7C9FF13F0EDFD00F087F8054921
:102290000348086000F0B8F8BDE8104000F0DCB872
:1022A0000000F63F08F501402DE9F84F8246384816
:1022B00017F06FF8DFF8D8B028B101260BF1010054
:1022C000FF21017000E000264FF48075314C4FF083
:1022D00000082F1D01216160C4F80081C4F8048149
:1022E000C4F804A52160DFF8B0901CE0D9F8000024
:1022F000C00618D50E2013F0C4FDEFF31080009037
:1023000072B603212046C4F80413294613F0C6FD13
:1023100030B93946204613F0C1FD08B917F0D0F89E
:10232000009800B962B62946204613F0B7FD28B9D7
:102330003946204613F0B2FD0028D7D03946204652
:1023400013F0ACFD0028C5D106BB9BF801108DF839
:102350000010009900919DF8001009B1012500E0DE
:1023600000250BF1010080F800800320C4F8080369
:10237000C4F80481C4F800810E2013F082FD0448E3
:1023800017F01EF815B11120BDE8F88F0020FBE70B
:10239000EA03002000E0004010ED00E010B5064820
:1023A00017F00AF818B127211D20FFF72BF9024872
:1023B0000021417010BD0000EA03002070B51149F2
:1023C0000A68EAB100231D4601244A68521C4A608B
:1023D0000C2A00D34D600E7904FA06F20E681642FC
:1023E0000BD0EFF3108372B60C6894430C6003B902
:1023F00062B649680160002070BD5B1C0C2BE4D301
:10240000052070BD8C000020024800210160416061
:10241000704700008C00002010B5044C2078FF2885
:1024200003D012F0D9F8FF20207010BD000000206A
:1024300010B5084C617809B10F2010BD12F092F868
:102440002070FF2801D0002010BD73211F20FFF74E
:10245000D9F80000000000200149002048707047B2
:102460000000002005498A8E824218BF7047002074
:1024700081F832004FF6FF7088867047BC1200204A
:102480000648074A818E5288914205D190F8320061
:1024900000281CBF0020704701207047BC1200209C
:1024A000D40300200149488070470000D403002075
:1024B0000848094A818E5288914209D14FF6FF712E
:1024C000818610F8321F19B1002101700120704778
:1024D00000207047BC120020D4030020074901F1FE
:1024E000320091F83220012A04BF002070470122F7
:1024F000027003480088888610467047BC1200208E
:10250000D40300200749084B8A8E5B889A4206D183
:1025100091F83220002A1EBF016001207047002080
:1025200070470000BC120020D403002009498A8EA5
:10253000A2F57F43FF3B03D00021016008467047AE
:1025400091F832200349012A1ABF016001200020BE
:1025500070470000BC12002001490880704700004D
:10256000D40300200A4A10B1012807D00EE05078A9
:1025700060B1D2F802000860D08804E0107828B179
:10258000906808609089888001207047002070471B
:10259000EC030020094A012340B1012818BF70470D
:1025A000137008689060888890817047537008683D
:1025B000C2F802008888D08070470000EC03002039
:1025C000064910B1012803D006E0487810B903E0AD
:1025D000087808B10120704700207047EC03002004
:1025E00001490877704700006A0900200148807897
:1025F00070470000940000200148C0787047000038
:102600009400002001490120487170479400002087
:102610002DE9F84FFD4DDDF828C02C78002C6CD149
:10262000002A1CBF002BBCF1000F66D0C5F81CC0EF
:10263000C5E90F014FF00009C5E9052385F80590AC
:1026400085F8049085F8029085F8019085F803904C
:10265000DFF8BC83A5F80C90A5F80E90D8F804001C
:1026600000F1A80604460CF055FF0CF037FA94F977
:1026700072000CF0EBFF206A0DF052FAA0690DF029
:1026800045FA96F833000DF085FA98F80000002816
:1026900038D0042012F078F8616941F64C5081423C
:1026A00028BF962003D201200DF018FA4D200CF01F
:1026B0004BFED8F8040090F8F802002818BF0CF080
:1026C00033FE94F86F1001200CF07CFC002808BF4A
:1026D000BDE8F88FCF480CF0B5FD2088FFF74CFC23
:1026E00068632088FFF732FCA86394F87B008DF8BC
:1026F00000009DF8000080BB1DE040F2451127203E
:10270000FEF780FF032012F03FF8616941F64C505C
:10271000814228BF962003D201200DF0DFF94D2021
:102720000CF012FE94F86E1000200CF04BFC002808
:10273000D0D1BDE8F88F606F78B1B6F84A00B18AA1
:1027400088420AD1B4F8781001220844A6F84A0059
:1027500094F87A00616F10F0DDFC06F18800DFF874
:10276000B8A20FC88AE80F00D6F89800CAF8190076
:10277000D6F89C00CAF81D00D8F80400012700F123
:10278000A80290F8C51026291EBF272992F81EC05E
:10279000BCF1260F0BD04FF008024FF002032129A5
:1027A00018BF22292ED0BCF1240F52D081E098F816
:1027B0000010002990F86E1013D090F8D60300286E
:1027C0007BD0082918BF042970D0082818BF042816
:1027D0006CD0012918BF012857D000BF4FF002016B
:1027E0006BE090F83203002867D0082918BF04294D
:1027F0005CD0082818BF042858D0012918BF012828
:1028000043D0EBE7BCF1240F23D098F80010E9B3D4
:1028100090F86E1090F8660110F0040F18BF104683
:102820000CD0082918BF042940D0082818BF042854
:102830003CD0012918BF012827D0CFE710F0010FA5
:1028400018BF3846EDD110F0020F18BF1846E8D176
:1028500033E098F80010C9B190F86E1090F866C196
:1028600090F867000CEA000010F0040F18BF104643
:1028700010D0082918BF042918D0082818BF042828
:1028800014D0012918BF0128A8D100E011E04FF0B1
:10289000010112E010F0010F18BF3846E9D110F025
:1028A000020F18BF1846E4D107E0FFE74FF0080118
:1028B00003E090F86E100429F8D0A08F11F00C0FEF
:1028C00018BF4FF4296013F0B7FC218F814238BF45
:1028D00008464E49887194F86F10B4F8420096F893
:1028E00023B0B4F84050082938D013F0A5FC00BF3D
:1028F000BBF1000F04BF001D80B2854238BF2846DF
:10290000C5B2DFF808B18BF8075001F047FE10B1EF
:102910002B2D98BF2B252A468BF8085098F80000DD
:1029200000B396F82300E8B38AF81870D6E92001BE
:10293000CAE9040194F86F100120012908BF00239F
:1029400043D0022908BF01233FD0042908BF032335
:102950003BD0082908BF022337D027E0042113F019
:102960006BFCC5E796F8220058B38AF81870D6E9D0
:102970001E01CAE90401616941F64C5081422CBF35
:102980000020042094F86E10012908BF002312D003
:10299000022908BF01230ED0042908BF03230AD04F
:1029A000082900E016E008BF022304D040F22241CB
:1029B0000620FEF727FEFB221749CDF800900BF00A
:1029C0009DFF012000F032FC07E01349CDF8009094
:1029D0000BF094FF012000F0CBFB104800680328A7
:1029E00018BF0B281ED0CAF85A90CAF85E90CAF8D1
:1029F0006290AAF866900A48B18A418021880180D5
:102A000096F833100171BDE8F88F000094000020A3
:102A1000D000002034340000100900205015004080
:102A20006A09002040F202214FF02700FEF7EAFD7C
:102A30002DE9F041204D06460F461E48696A82B0D6
:102A4000406891F8018000F1A80416F0020F15D03B
:102A5000A86A48B36A89D21C16F07DFDA86A68622C
:102A600001AA6946A86B12F0D2FE009812F08DFE02
:102A7000386001224146A86B12F03EFE16F0010FAD
:102A800004BF02B0BDE8F081D4E92002411C42F14C
:102A90000000C4E92010207E01280CBF0020012086
:102AA000207602B0BDE8F08140F266412720FEF7B3
:102AB000A9FD0000D0000020940000200248C08939
:102AC000C0F38020704700009400002038B51A48F9
:102AD000017800F13C0449B12178007849B102281D
:102AE0000ED040F21E212720FEF78CFD00F0A0FA48
:102AF0000BE0012809D040F21A212720FEF782FDC1
:102B00006068D0F810030CF0B3FB606890F87B109D
:102B10008DF800109DF80010002918BF38BD416FD6
:102B2000002908BF38BD90F87A00BDE8384000227F
:102B3000114610F0EFBA000094000020002281B08E
:102B40004A702E230B700E4B0272D3F868C0C1F886
:102B500004C0D3F86CC0C1F808C0D3F870C0C1F885
:102B60000CC0B3F874C0A1F810C090F808C08DF87C
:102B700000C09DF800C0BCF1000FE5D101B0704766
:102B800010090020012984BF0120704770B51B4C3B
:102B90000546A169884700282CD0207950BB04F154
:102BA0003C000178002908BF012D01D021B31DBBD5
:102BB0001348027812F0100F06D1E06A007810F086
:102BC000100F08BF012001D04FF00000A36A23B905
:102BD000638913B112F0100F0CD000291CBF217BA8
:102BE00011F0020F03D0216AC978022904D0A1890B
:102BF000084301D0012070BD002070BD940000206A
:102C0000A40000202DE9F34FDFF8008383468BB04A
:102C1000D8F804004FF0000AA8F13C0400F1A8071E
:102C20008DF814A0CDF818A020785646D146022879
:102C300004D040F2EA412720FEF7E4FCA07B10F02C
:102C4000400F07D14020626900219047E08940F0A1
:102C50004000E08197F82300BBF1000F00F0D38023
:102C6000A0B10BF079FF0BF053FF78B9606A41789F
:102C700061B10078397EC0F3C000884206D10120DE
:102C8000607000F0D5F90DB0BDE8F08F606A417852
:102C90006181002908BFA66203D0A06B12F073FE09
:102CA000A062E08940F48070E081606AF97D00787C
:102CB000C0F38000884208BF4FF0010A47D0D8F81F
:102CC000040006A900F1A80590F8BE0000283AD03B
:102CD00002280BD1606B12F0E7FC00284BD0D5E93D
:102CE0001E01401C41F10001C5E91E01AE7598F8B6
:102CF000000000281CBFA87C002809D0AE74A2895F
:102D0000314642F01002A28162694FF010009047F4
:102D1000687C90B16E74FFF7CBFB90B3A28908205A
:102D200042F00802A281626900219047D5E91E02A3
:102D3000411C42F10000C5E91E10E87D01280EBFCC
:102D4000EE750120E875E08940F48060E081606AFA
:102D5000397E0078C0F3C000884222D101F01EFC09
:102D6000B8B1616AE0790A7802F00302012A18BF5B
:102D7000022A0BD00DE040F2E3314FF02700FEF7BE
:102D800041FC40F2FA312720FEF73CFC49788142B1
:102D900003D805A800F090F903E0207940F0100076
:102DA000207197F8220000283FD098F80010D8F83A
:102DB000040000290CBF0122002255490A76D7E9F8
:102DC0001E23C1E90423416941F64C52914234BFAC
:102DD0004FF0040C4FF0000C90F86E00012808BF73
:102DE00000231CD0022808BF012318D0042808BFE4
:102DF000032314D0082808BF022310D040F2224138
:102E00000620FEF7FFFB002818BF0BF09FFEA078FE
:102E1000401CA070E08940F40070E081C1E7FB2213
:102E20003B49604600960BF069FD0C98002520B9DF
:102E3000A1780120FFF7A6FE18B10CF055FE012580
:102E400002E0002000F0F2F99DF81400C0B1616AC0
:102E500048780090A06AD0B16289D21C16F07BFB42
:102E6000A06A606209AA08A9A06B12F0D0FC0898B9
:102E700012F08BFC81460122A06B009912F03CFC01
:102E8000B98A2448BAF1000F13D029B10DE040F2FD
:102E900066412720FEF7B6FB98F8001029B1C188DB
:102EA000002904BF0189002903D0418901F10101F2
:102EB0004181BBF1000F07D0C188491CC180A670B9
:102EC000124801F0F7FC02E00189491C01810698D3
:102ED00040B112F05AFCD8F80410401C06720E22C1
:102EE00001F06CFAB9F1000F08D0D8F8041009F11C
:102EF000080006702A22484601F060FA002D18BF2B
:102F000000F096F80DB0BDE8F08F0000D000002072
:102F1000100900206A0900202DE9F84F424E83462F
:102F2000A6F13C0570688A4600F1A80428780128BB
:102F300004D040F275412720FEF764FB207C002777
:102F40004FF0010968B12774AA89394642F004029A
:102F5000AA816A69042090473078002818BF84F855
:102F60001290296A4FF00308087838EA00000DD162
:102F7000A07DA0B9AA89022042F00202AA816A6952
:102F80009047286A007838EA000008D0286A40781C
:102F900000280EBF84F816900220A07501E084F886
:102FA000168094F8230000282CD031782A7A706893
:102FB00000290CBF0121002181F001031B490B7680
:102FC000D4E9203CC1E9043C90F86F004FF0010CBB
:102FD000012808BF002310D0022808BF01230CD00D
:102FE000042808BF032308D0082808BF022304D000
:102FF00040F222410620FEF705FB0C49604600978F
:103000000BF07CFC3AEA0B0004D000210846FFF7E5
:10301000B9FD18B1BDE8F84F00F00AB8BDE8F84FA7
:10302000002000F0A5B80000D0000020100900200A
:1030300010B50BF05DFE0BF051FD114C00216269E3
:10304000E08990470F48017F99B1A0F15A01D1F86A
:103050005A208A66D1F85E20CA66D1F862200A67D3
:10306000B1F86620A1F87420242207491D3001F030
:10307000F9F9E2692179607890470020207010BD4D
:10308000940000206A0900203D2B0000084810B57C
:103090000078022804D040F24D212720FEF7B2FA32
:1030A000044901200873BDE81040FFF7C1BF0000CC
:1030B000940000206A09002070B52649264C01269C
:1030C000496801F1A805616A0A7802F00302012A41
:1030D00018BF022A0ED0032A23D12E74E28930466B
:1030E00042F40062E281A28942F00102A281626997
:1030F000904716E04978A1B1E28942F40062E2818A
:10310000A26A002A08BF70BDFB291DD86179002979
:1031100008BF067005D06269BDE87040202000211C
:103120001047287E012806BF002028762E76606A88
:103130004078002808BF70BDD5E92010491C40F137
:103140000000C5E9201070BD207940F0100020710A
:1031500070BD0000D00000209400002003480078DB
:10316000002808BF7047FFF763BF000094000020ED
:103170002DE9F041DFF8AC800746A8F13C04D8F80F
:103180000450E06A606295F8CB10207A05F1A80639
:1031900000291CBF001DC0B22249002F496891F8C8
:1031A0006F1002BFFF2895F86E20914201D00CF0FD
:1031B000BDFC96F82300A8B1206B0CF053FA98F8E8
:1031C000000000280CBF0120002080F001011648FB
:1031D0000176D6E92012C0E90412216B606A0BF077
:1031E0001DFC04E0606A0CF03DFA0BF077FC3FB97F
:1031F00095F86F0010F00C0018BF28200CF06EF846
:10320000686941F64C51884295F86E204FF00001F4
:1032100034BF012000200CF0FDFB02202070BDE82F
:10322000F0810000D0000020100900202DE9F04FAF
:10323000DFF8F4A183B0AAF11C09DAF804504FF0CA
:1032400000088DF80080A9F1200495F8CB10227AAF
:1032500005F1A80600291CBF111DCAB27249002839
:10326000496891F86E1002BFFF2A95F86F008842F6
:1032700003D04FF0FF000CF059FCB07DDFF8ACB18B
:10328000012750B1012830D0022841D003284FD067
:1032900040F2FF212720FEF7B5F9A079ADF8040030
:1032A000A5F854004846FFF72DF9A0B1A289216A7C
:1032B00042F08002A2816269802090477774D9F839
:1032C0000000C0781B283CD14FF0010105F110002F
:1032D0000CF04CFF35E06A4601A9606B12F0D2FA9F
:1032E000206210B196F85D1011B1C4F820B028E04A
:1032F0009DF8001031B9A0F8008080F8028001210B
:1033000013F042FBBDF80410206A13F0F9FA18E03C
:10331000B5F85400ADF804006A4601A9606B12F0DC
:10332000B1FA206268B940F2E9212720FEF76AF974
:103330004846FFF7E7F868B3D9F80000C0781B28C3
:10334000C2D0206A4FF008034FF00309017801F062
:10335000F7010170F27D03EAC20241EA020101F0C5
:10336000FB010170327E4FF0040303EA820241EA5E
:10337000020101F0EF01017039EA010104BFC078D8
:10338000022815D0606B12F057FA002818BFB84613
:1033900005D00DE040F2F2212720FEF733F9206A34
:1033A000007839EA000003D0FFF76AF880F00108DE
:1033B000206A017841EA0811017096F8221000296C
:1033C0001CBF4178002913D0206B0CF04BF99AF800
:1033D000000000280CBF0121002115480176D6E924
:1033E0001E12C0E90412216A206B0BF017FB03E0E8
:1033F0000CF038F90BF072FB686941F64C518842C9
:1034000095F86F204FF0010134BF012000200CF02F
:1034100001FBE770206A018821828078A074277000
:1034200003B0BDE8F08F0000D00000203809002074
:10343000100900208D300000052C0000192F00001D
:103440005D3100000246074810B5007838B10648E3
:10345000817821B1C01C0BF08DF9012010BD002036
:1034600010BD0000D8030020F21200200048704771
:10347000C51400202DE9F041124C00263546A078F5
:1034800000288CBF104FBDE8F081601990F83B21F7
:1034900090F80311012A02D090F84B0158B104EBC7
:1034A000C100BD5590F8532100F5AA713046731C38
:1034B000DEB20CF0BFFE681CC5B2A078A842E4D80A
:1034C000BDE8F081F2120020DC03002004498A7874
:1034D000824286BF084490F84301002070470000F4
:1034E000F212002004498A78824286BF01EB001064
:1034F0008330002070470000F2120020054A01EBE3
:10350000410102EB41010268C1F80B218088A1F85A
:103510000F017047F21200202DE9F041134C0646CE
:103520000025A078002898BFBDE8F081C0B2A8426D
:1035300014D904EB0510833010D0611991F84311B0
:1035400061B905EB450104EB410707F20B11324667
:1035500012F0F3FCB7F80F01A7F80F01681CC5B211
:10356000A078A842E2D8BDE8F0810000F212002065
:1035700004498A78824286BF01EB0010C01C0020FB
:1035800070470000F212002008498A78824203D96D
:103590000A1892F843210AB10020704700EB40005E
:1035A00001EB400000F20B1070470000F212002007
:1035B00010B540F2D3120021074816F046F8082251
:1035C000FF21064816F041F80548002101704170BE
:1035D0004FF46171418010BDF2120020DC03002025
:1035E000D803002070B50C4605460BF03FFB0BF0EE
:1035F000D9F80A482A46007868B1094B997851B140
:10360000002C0CBF03F18300D81C0BF0B3F80BF0B7
:10361000F3F8012070BD002070BD0000D803002029
:10362000F21200200B4B93F802C084459CBF00208F
:103630007047184490F8030103EBC00090F8533131
:103640000B70D0F854111160B0F85801908001202F
:1036500070470000F212002007498A7882429CBF1E
:1036600000207047084490F8030101EBC00090F877
:103670005A0100F001007047F212002010B500F06E
:1036800077F9102814D00B4A0146002092F802C0A6
:10369000BCF1000F0CD9131893F803318B4203D1FE
:1036A000102818BF10BD03E0401CC0B28445F2D8FA
:1036B000082010BDF21200200246064810B500EBAB
:1036C0000110012183300BF055F8BDE810400BF0DC
:1036D00093B80000F21200200148408870470000B3
:1036E000D80300202DE9F0411746012500221E468F
:1036F0002C463A7000F03CF9102827D0184901EB0D
:10370000C00292F85A2102F001023A708B7800222E
:10371000002B1BD901EB020C9CF803C1844519D185
:10372000102A13D0002E18BF3270887890420DD91D
:1037300001EB021010F1030F08D0881890F84B41EC
:1037400090F83B0101280CBF0125002545EA040043
:10375000BDE8F081521CD2B29342DBD8F6E70000FC
:10376000F212002006498A78824206D9084490F86D
:103770003B01002804BF0120704700207047000073
:10378000F212002070B50D46044600F0F1F81A4A16
:10379000102814D002EBC00191F85A0110F0010F6B
:1037A0001CBF012070BD507808283CBF012081F863
:1037B0005A011ED25078401C5070012070BD5078C4
:1037C000082816D213780120591C1170102B03D32E
:1037D00046212820FDF716FF02EBC3032968C3F832
:1037E0005411A988A3F8581183F8534183F85A015A
:1037F000E0E7002070BD0000F21200200148407890
:1038000070470000D803002001494870704700004D
:10381000D803002070B42B4800250178491E4BB214
:10382000002B46DB00EBC30191F85A1111F0010F98
:103830003BD04278D9B2521E427000EBC10282F8EE
:103840005A5190F802C00022BCF1000F0BD9841825
:1038500094F803618E4202D1102A26D103E0521C53
:10386000D2B29445F3D80278521ED2B202708A4284
:103870001BD000EBC20200EBC10CD2F85341CCF8D4
:103880005341D2F85721CCF85721847890F800C0E2
:103890000022002C09D9861896F8036166450CD1E0
:1038A000102A1CBF024482F80311591E4BB2002B90
:1038B000B8DA0548457070BC7047521CD2B29442C9
:1038C000E9D8F2E7F2120020D80300202DE9F041F8
:1038D000254D00263446287800288CBF234FBDE8AC
:1038E000F08100BF05EBC40090F85A1111F0010FF0
:1038F00032D0AA7800212346002A09D905EB010C11
:103900009CF803C19C4504D0491CC9B28A42F5D831
:1039100010218A4286BF05EB0112D31C002300222E
:1039200010290CD005EB010C9CF83B81B8F1010F7C
:1039300004D09CF84BC1BCF1000F00D00122521EF4
:10394000134209D1B95590F8532100F5AA713046B8
:10395000731CDEB20CF06EFC601CC4B22878A0426E
:10396000C0D8BDE8F0810000F2120020DC03002086
:103970002DE9F00F204B0246002093F80080B8F1AB
:10398000000F34D90F784E788D78CC7891F804C038
:1039900091F805A003EBC00191F8539191F854B14F
:1039A00082EA090987EA0B0BD94491F855B186EAF6
:1039B0000B0BD94491F856B185EA0B0BD94491F819
:1039C00057B184EA0B0BD94491F858B191F85911C9
:1039D0008CEA0B0BD9448AEA010111EB090F04BFF1
:1039E000BDE8F00F7047401CC0B28045D2D8BDE89A
:1039F000F00F102070470000F2120020254910B48B
:103A00004A7801EBC003521E4A70002283F85A2103
:103A100091F802C0BCF1000F0DD98B1893F8034147
:103A2000844204D1102A1CBF10BC704703E0521C12
:103A3000D2B29445F1D80A78521ED2B20A708242AC
:103A400004BF10BC704701EBC00301EBC202D2F807
:103A500053C1C3F853C1D2F85721C3F857218C780A
:103A600091F800C00022002C9CBF10BC70478B183E
:103A700093F80331634506D1102A1CBF114481F825
:103A8000030110BC7047521CD2B29442EFD810BC54
:103A900070470000F212002070B58CB000F11004E5
:103AA0001D4616460DF1FF3C5FF0080014F8012C8E
:103AB0008CF8012014F8022D0CF8022F401EF5D1CD
:103AC00001F1100C6C460DF10F0108201CF8012CBF
:103AD0004A701CF8022D01F8022F401EF6D1204634
:103AE00012F0E9F97EB16A1E04F130005FF00801BE
:103AF00010F8013C537010F8023D02F8023F491ED5
:103B0000F6D10CB070BD08982860099868600A98D2
:103B1000A8600B98E8600CB070BD000070B504465A
:103B2000012679B1584A0025012931D002297AD0DD
:103B3000032918BF70BD04F1CE01BDE87040CD303F
:103B400012F034BC4FF48162002115F07EFD84F840
:103B5000CD604E4AC4F816210722C4F81A2194F801
:103B60001621FE2022F0040284F8162184F84E016A
:103B70007F2084F8C100464804F1A801C4F8B000D1
:103B80000020C1E900004FF6FF70A4F8560170BD97
:103B9000A4F8165384F80B5360693E49B2FBF0F267
:103BA0000144B1FBF0F1C4F8EC1040F6B831A4F8D0
:103BB000F010E38BA4F8F650B4F8FAC0521C0CFBDA
:103BC00000FCBCFBF0FCA4F8FAC040F2712C03FB33
:103BD0000CF300EB03135B1EB3FBF0F3A4F8F83017
:103BE000A4F8FE202C4A04F1A80100EB0212521E98
:103BF000B2FBF0F24A640A6C4243B2FBF0F0086494
:103C00002631481E12F0D2FB15F036FC38B1A069FF
:103C100000F058FD002804BF84F8F86270BD84F8F5
:103C2000F85270BDFFE7D4F8DC13B4F8E2C363695F
:103C300004F1A800A4F8F650B4F8FA40B2FBF1F28F
:103C40005C43B4FBF1F4A0F8524040F271240CFB49
:103C500004FC01EB0C1CACF1010CBCFBF1FCA0F86A
:103C600050C0521CA0F85620B0F84820624301EB27
:103C70000212521EB2FBF1F24264026C5A43B2FBD2
:103C8000F1F1016470BD0000005A62022F49043452
:103C900000E0FCFF7FC3C901389C1C0041F64C5278
:103CA00091423DBF0549A1FB0010400940F2E241AD
:103CB00028BFB0FBF1F080B2704700001F85EB51C8
:103CC00041F64C5291423DBF0549A1FB001040090D
:103CD00040F2E24128BFB0FBF1F0C0B270470000F3
:103CE0001F85EB5130B40022A1F1010CBCF1000F93
:103CF00012DD431E11F0010F08BF13F8012F5C788D
:103D00005FEA6C0C08D000BF13F8025F22435C78B6
:103D10002A43BCF1010CF7D1491E5CBF405C024351
:103D2000002A0CBF0120002030BC7047074991F9E0
:103D3000001008441428C4BF1420704710F17F0FEE
:103D4000B4BF6FF07E0040B270470000FA0300205D
:103D500008B57F208DF8000068460BF0CDFE0028E6
:103D600004BF9DF9000008BD9DF900100748407888
:103D7000404240B208441428C4BF142008BD10F1CA
:103D80007F0FB4BF6FF07E0040B208BDFA03002081
:103D900010B515F0CBF8074991F900100844142824
:103DA000C4BF142010BD10F17F0FB4BF6FF07E00B0
:103DB00040B210BDFA030020074908B509788DF814
:103DC00000109DF8001000291CBF002008BD034909
:103DD00015F0CAF8012008BDFC030020FD030020F7
:103DE00010B5054CFF2121700146601C15F0BCF890
:103DF0000020207010BD0000FC03002070B581EA97
:103E000011418BB2C47A83EA0201002201F0FF0C57
:103E1000090A91FAA1F19CFAACFC090E4FEA1C6C5C
:103E20004CEA012101EB011C521C0CEB0301D2B244
:103E300089B2032AEAD381EA0302DFF888C00021AD
:103E40006346E2FB0C3109096FF0240301FB0321F7
:103E5000C9B200EBD10301F0070C5D78012303FA2E
:103E60000CFC15EA0C0F1CBF084670BD04FB02F1E8
:103E7000090C491CC9B24FF0000C00BF00EB0C0448
:103E8000A2798A4227BF00226478891AC9B20AD36C
:103E900003FA02F52C421CBF491EC9B271B1521C73
:103EA000D2B2082AF4D30CF1010202F0FF0CBCF1EB
:103EB000050FE3D39D214620FDF7A4FB02EBCC00C8
:103EC000C0B270BD53E4B36E70B5044690F83000D4
:103ED00008B1252801D9122070BD002A04BF002096
:103EE00070BD94F8250010B1012851D048E094F835
:103EF000320094F831102B4B01FB020000251A46CA
:103F00002946E0FB032109096FF0240201FB0200AE
:103F1000C0B204EBD00284F8320000F0070192F83E
:103F20002620012303FA01F10A421EBF84F8330060
:103F3000284670BD94F83010B0FBF1F201FB12007E
:103F4000401CC1B25FF0000004EB000C9CF82B2079
:103F50008A4227BF00229CF826C0891AC9B20BD317
:103F600003FA02F61CEA060F1CBF491EC9B249B18A
:103F7000521CD2B2082AF3D3401CC0B20528E3D3A6
:103F80001F2070BD02EBC00084F83300284670BDCE
:103F9000A28A896904F12500FFF730FF84F8330015
:103FA000002070BD53E4B36E417841B1C0782B2836
:103FB00003D2044A105C884201D1012070470020DE
:103FC00070470000B497010010B50122C1702B2981
:103FD0003CBF064A525C06D3FF2904D040F275412B
:103FE0002A20FDF70FFB427010BD0000B4970100BE
:103FF0000449897D01F0040108430CBF0120002021
:10400000704700005C0D00200348807D10F0020F17
:104010000CBF0120002070475C0D00200348807D0C
:1040200010F0010F0CBF0120002070475C0D002034
:104030002DE9F84FDFF83893CE4E0127834600254F
:104040007068007A8DF80000009800909DF80010CC
:104050002A2908D199F8170028B1B9F818000028C2
:1040600008BFBDE8F88F4FF0000874682846227A30
:104070008DF80020009A00929DF80030012B08BFB7
:104080002C4610D0EFF3108172B62268726001B92D
:1040900062B6217A8DF80010009900919DF80020F9
:1040A000002A08BF38460028DFD11CB3207A8DF8DB
:1040B00000009DF800A0AAF10200302880F03981AC
:1040C000DFE800F01BA98E2EA082A9FDFCFDFDFDFE
:1040D000B2FDFB2EA082FDFD2EA05C7A5CFDD2829B
:1040E00082FD2EFDFDFAFD2EFB26DFE8F936363681
:1040F0003E4CF8DF0020BDE8F88F626822B94FF42B
:10410000D2711020FDF77EFA594620469047CAE04A
:104110006268002AF8D140F2AD111020FDF772FA62
:104120006268002AF0D140F2BB111020FDF76AFA54
:104130006268002AE8D140F2C7111020FDF762FA48
:10414000626832B12572594620469047002853D004
:104150000CE040F2CF111020FDF754FA626842B132
:104160005946204690472572002872D00820BDE8A5
:10417000F88F40F2E1111020FDF744FA7E48036801
:10418000002B78D0606852465946009098479BF8BB
:1041900000001E2805D01B286DD19BF804000028C4
:1041A00069D0009804210089FDF740FD20B34FF449
:1041B00000711020FDF726FA6268002AA4D14FF49E
:1041C00003711020FDF71EFA6C480368002B6AD0BB
:1041D0006068524659469847BAF11E0F39D062E0DE
:1041E00008F02CFE002808BF4FF001085BD0626881
:1041F0001AB15946204690472BE040F23321102057
:10420000FDF700FA6268002A7FF47EAF40F23F219A
:104210001020FDF7F7F96268002A7FF475AF40F2CD
:104220004B211020FDF7EEF96068A8B10488204604
:10423000FDF7A2FEA0B18BF801500F218BF8001002
:10424000ABF80640ABF808708BF80470002111F051
:104250006EFB0420BDE8F88FCE211020FDF7D2F9C7
:10426000AE211020FDF7CEF962682AB159462046EA
:1042700090474FF0010816E040F263211020FDF74F
:10428000C1F96268002A7FF43FAF40F26F2110202D
:10429000FDF7B8F98BF801501F208BF80000D4F817
:1042A0000900CBF804002572BAF1210F46D0BAF10B
:1042B000140F05E034E01AE029E03AE005E00DE0F3
:1042C00042D0BAF1220F49D04DE06268002A7FF453
:1042D0001BAF40F281211020FDF794F96268002A9B
:1042E0007FF412AF40F296211020FDF78BF924489D
:1042F000026822B1606828B10088594690470220C0
:10430000BDE8F88F40F29F211020FDF77BF962682D
:10431000002A7FF4F9AE4FF42B711020FDF772F9EB
:104320006268002A7FF4F0AE40F2B7211020FDF75A
:1043300069F940F2BD211020FDF764F9FFF764FE32
:1043400000287FF47DAE0EE09BF80E0000F0010027
:10435000FFF74EFE00287FF473AE04E0FFF75EFE29
:1043600000287FF46DAEB8F1000F7FF469AE70E7FE
:104370005C0D00208C0D0020E0000020DC000020FF
:10438000D80000200A4910B508700A480021416190
:104390008161C1610162122215F057F906480121BD
:1043A00000F10C021170011D4160016010BD0000A0
:1043B00002040020780D00208C0D002038B5037A0F
:1043C0008DF800309DF8003023B140F217311020F5
:1043D000FDF718F9F0B1416000F108010A70EFF340
:1043E000108372B6DFF844C0C0F800C0ACF104011D
:1043F0004A6852B1127A8DF80020009A00929DF816
:104400000040012C08BFC1F800C00A6810600860B5
:1044100033B904E040F2E2211020FDF7F3F862B670
:1044200003480078BDE8384010F0BAB8900D00207D
:1044300002040020094810B5002141618161C16179
:104440000162122215F001F90548012200F10C0168
:104450000A70011D4160016010BD0000780D002050
:104460008C0D002038B5037A8DF800309DF80030AF
:10447000002B18BF38BDF0B1416000F108010A708F
:10448000EFF3108372B6DFF848C0C0F800C0ACF19B
:1044900004014A6852B1127A8DF80020009A009205
:1044A0009DF80040012C08BFC1F800C00A681060E8
:1044B000086033B904E040F2E2211020FDF7A2F8D1
:1044C00062B604480078BDE8384010F069B80000D2
:1044D000900D00200204002030B45081B1F808C0D3
:1044E0001346A2F80CC08A89DA8148891882CC89DF
:1044F0005C82CD8DA54204BF4C8D844206D10C8ECA
:10450000944202BF8A8D6245002201D04FF0010221
:104510001A754885588AC88598898885D8890886F3
:1045200030BC4FF0140202491846FFF79BBF000051
:10453000BB6B010030B490F86E508C88B1F808C0A5
:1045400015F00C0F1BD000BFB4F5296F98BF4FF4C6
:10455000296490F86F5015F00C0F17D0BCF5296F37
:1045600098BF4FF4296C4A88C988A0F84C20A0F85D
:104570005010A0F84E40A0F852C030BC7047002B3D
:104580001CBF157815F00C0FDED1E2E7002B1CBF25
:10459000527812F00C0FE1D1E5E7000001480078F5
:1045A000704700000304002070B5B0F838C012F066
:1045B0000C0F0CF1040C1FFA8CFC4FF434751CBF6B
:1045C00005EB8C1C1FFA8CFC0FD1012A04BF4FEAAB
:1045D000CC0C0CF1500C06D0022A04BF4FEA8C0C14
:1045E0000CF12C0C66D11FFA8CFC12F00C0F18BFCA
:1045F0004FF4296406D1B0F84E60B0F84A40A642A4
:1046000038BF3446644538BFA446B0F84040241D46
:10461000A4B213F00C0F1CBF05EB8414A5B20AD191
:10462000012B04BFE400503404D0022B04BFA400CB
:104630002C343FD1A5B213F00C0F18BF4FF42964EE
:1046400006D1B0F85260B0F84840A64238BF3446B0
:10465000AC4228BF2C461A48007898B113F00C0FD2
:1046600018BF4FF4696012D0844228BF2046044628
:1046700012F00C0F18BF4FF4696012D0844528BFA8
:10468000604684460CEB04000844801D70BD012B7D
:1046900008BF4FF4E470E7D0022B08BFE820E3D056
:1046A00008E0012A08BF4FF4E470E7D0022A08BFEF
:1046B000E820E3D040F226210620FCF7A3FF00000B
:1046C0000304002070B46FF01F02010C02EA902571
:1046D0001F23A1F5AA4054381CBFA1F5AA40B0F190
:1046E000550009D0A1F52850AA381EBFA1F52A40CF
:1046F000B0F1AA00012000D100204FF0000C62466A
:104700004FEA0C048CEA0106F6431643B6F1FF3F6C
:1047100011D005F001064FEA5C0C4CEAC63C03F0F0
:10472000010652086D085B08641C42EAC632162C6A
:10473000E8D370BC704770BC0020704710B50C4CBB
:1047400008212046FCF7FCFF2068002804BF6068B1
:104750000028F5D0074C00BF4FF008012046FCF7B9
:10476000EFFF2068002804BF60680028F4D010BD67
:10477000E4000020EC000020094A0A48D2E90013B6
:1047800048434B4083EAB11181EA432111604FEA6B
:10479000F0604FEAF34100EB800051607047000089
:1047A000E4000020BB79379E094A0A48D2E9001389
:1047B00048434B4083EAB11181EA432111604FEA3B
:1047C000F0604FEAF34100EB800051607047000059
:1047D000EC000020BB79379E70B5A0F1340530F8AD
:1047E000DC6C17480C46016800291CBF2846884726
:1047F0001448016800291CBF3046884700206070BB
:104800000C2121702071A4F8056095F83D00E0713D
:104810003046FDF79BFB10F043FF60B13046FDF7DB
:1048200021FE00213046FDF701FA3046BDE8704018
:104830000121FDF7FBB960216320FCF7E3FE0000D6
:10484000F4000020F800002010B5041D09F054FF0A
:10485000034A01F0070110402060616010BD0000B4
:104860002F49043770B540680C1D00F1A80509F008
:1048700043FF064A01F00701104095F86E20024000
:1048800062F307002060616070BD00002F490437AB
:10489000074900F500600013097840B2494249B267
:1048A000084400F307000028D8BF0020C0B27047BA
:1048B000FC0000202DE9F84F4768064607F1A80ADA
:1048C000FFF746FA054670684FF0000B00F1A804A8
:1048D00080F8C1507F2D08BFBDE8F88F94F83300F1
:1048E000D6F80490A0764248A1688268C2F5805349
:1048F0006B43514303EB2131A1604179002937D04B
:10490000716890F9002001F1A808D1F8B01001F504
:104910000061091349B2914207DA90F90200494255
:1049200049B2084400F307000AE090F901208A42E6
:104930001EDA90F90300494249B2084400F3070027
:10494000B0B1D8E900016FF00042514071EA0000B7
:104950000ED00EF0FDFBD8E90023801A71EB0300A6
:1049600006D370683122234900F51D70FFF77AFDE8
:1049700094F91B000021281A48BF404299F82D20C5
:10498000824210DCFF2A0ED0207F401CC0B220776C
:1049900099F82E20904202D8E07E7F2803D1E57658
:1049A00084F81CB0012197F82C00012818BFBDE83D
:1049B000F88F002908BFBDE8F88F706890F8B01133
:1049C0008DF800109DF8001000F5D470002918BF74
:1049D000BDE8F88F398841819AF8191001739AF867
:1049E0001A104173BDE8F84F1F220349FFF7E6BCD8
:1049F000FC000020FD490000796C01002DE9F04128
:104A000082B000224A70A0F51D750A70A0F5E67408
:104A100095F86F0013F09DF88046A0682E4E00F5C3
:104A20000060001341B296F90000814207DA96F95E
:104A30000200494249B2084400F307070DE096F925
:104A400001008842A4BF02B0BDE8F08196F90300DE
:104A5000494249B2084400F30707002F04BF02B0DF
:104A6000BDE8F0816FF00042D4E90001514071EAE5
:104A7000000004BF02B0BDE8F0810EF069FBD4E98C
:104A80000023801A71EB03003CBF02B0BDE8F08147
:104A90002888694611F0EDFA18B189217A20FCF7CF
:104AA000B1FD08F10100C1B202233A46684613F095
:104AB00091F800281CBF02B0BDE8F08130790749A9
:104AC000A0FB01560EF044FB40197141C4E90001FE
:104AD00002B0BDE8F0810000FC00002040420F0061
:104AE0002DE9F0410446807C002816BF02280020F2
:104AF000012084F8680018B3607E68B3D4F813000E
:104B0000C4F86900B4F81700A4F86D00A07C02286E
:104B100016BF032801210021A1764FF00800E0769E
:104B200094F868004FF001074FF00008012804BF17
:104B300094F86E2012F0C00F1BD0012811D016E09F
:104B400004F169010020FDF70DFD0028DED140F2DF
:104B5000B9412D20FCF756FD40F2BD412D20FCF758
:104B600051FD94F86E0000F0C000402801D00020F4
:104B700000E00120207731B194F86F0004F170015A
:104B8000FEF77CFDE076FEF7A7FD3749A0FB016547
:104B90000EF0DEFA80196941C4E918010026E07EB2
:104BA000FEF7A0FC0546A07E002818BF002D03D00C
:104BB000E07EFEF78BFC58B194F8820000281CBF01
:104BC000207F00281DD094F8680001280ED013E043
:104BD00084F86870324604F16901284611F0ADF995
:104BE000E17E04F16900FEF789FC0AE094F86E00AA
:104BF00000F0C00040282FD0414604F1690011F0B8
:104C00008BF984F87680A07810F0040F08BFBDE817
:104C1000F0810026E07EFEF7ABFC050008BFBDE892
:104C2000F0811021FFF75EF8002818BFBDE8F08181
:104C300084F87670324604F17701284611F07DF948
:104C400004F17701094CA06811F009FEA068BDE8E5
:104C5000F041012111F00ABEFEF708FC324604F1D2
:104C6000690111F06AF9CCE740420F000801002009
:104C7000F8B504460D46303012F0D5F9B4F802C04C
:104C8000CCF3001129B1BDE8F8402822614602F0BA
:104C900033BBCCF34001002914BFB4F85C60B4F816
:104CA000546021791D4A4FF47A73082932F8112093
:104CB00002F2E732B2FBF3F708BF40230AD004291F
:104CC00008BF102306D0022907BF0423122208239D
:104CD000192200E0142213FB02F2082908BF402326
:104CE00019D0042908BF2E2315D0002302290CBF98
:104CF000182128211944114411FB00716FF07F0223
:104D000002EBC0100144CDF800C062792B4630465A
:104D100001F052FFF8BD4FF4A871EBE79472000068
:104D20002DE9F04F80468FB00C46C269D8E90501E5
:104D3000D8E90076D8E903A90592CDE90301D8E9BD
:104D40000801D8F82820CDE90601089201A812F040
:104D500013FAA07A60F31749207860F30707B4F8D4
:104D60000100ADF800009DF8000000F00101C0F363
:104D7000400241EA4201C0F3800241EA8201C0F3ED
:104D8000C00241EAC201C0F3001241EA0211C0F3BD
:104D9000401241EA4211C0F3801041EA801B207D9D
:104DA0006BF31F47012818BF022803D0032808BF50
:104DB00008200ED1617860F3070611F0100F0FD1B3
:104DC000A17D012918BF022908D0032908BF0821A5
:104DD00004D040F2EA210620FCF714FC61F30F2610
:104DE000CAF30741012908D0617A01A812F09FF99E
:104DF000207D012102280FD10BE00421082808BFE3
:104E000061F30706C6F30720082808BF61F30F26E1
:104E1000EAE7607D401CC1B2A07E401CC2B201A87E
:104E200012F0EAF8380C10F0080F4FF0000524D10A
:104E300001A812F0F8F8617811F0100F7FD0282245
:104E4000594602F059FA00BF40F2712100F2D92010
:104E5000B0FBF1F000FB01F5D4F8020040F2712242
:104E6000000A4143D4F80500000A50438D4298BF20
:104E70000D4602D9854288BF0546A07C60F30F2904
:104E8000207E012818BF002060F3070AD8F84C00E4
:104E900010F013FF8346D8F84C0010F0BAFF83459A
:104EA00028BF584698B101A90A91390CADF82C10C9
:104EB0008DF83460310A8DF835100C950AA902F08E
:104EC000C5F8002802BF45200FB0BDE8F08FC8F834
:104ED0000CA0C8F80070C8E90165DDE90301059A76
:104EE000C8F81090C8F81C20C8E90501DDE90601E2
:104EF000089AC8F82820C8E908010198C8F83000C5
:104F0000BDF80800A8F83400E07A002816BF02288F
:104F10000020012088F86F00E068C8F87000208A3F
:104F2000A8F87400E07D98F8461060F3071188F83F
:104F300046100FB04FF00000BDE8F08FFFE70346CA
:104F4000F0B221494FF47A72082831F8101001F2BA
:104F5000E731B1FBF2F208BF4FF0400C0DD004284E
:104F600008BF4FF0100C08D0022807BF4FF0040C08
:104F700012214FF0080C192100E014211CFB01F153
:104F8000082808BF40251BD0042808BF2E2517D0AD
:104F900002280CBF182028202844084410FB0320B6
:104FA0006FF07F0101EBC3114518FDF7B7F8390C1D
:104FB0000091C6F307220123294601F0FDFD43E7D6
:104FC0004FF4A870E8E7000094720000024901481D
:104FD000C8607047E072000008010020114A10B557
:104FE00000211170104CA060107820B140F22D31DA
:104FF0002D20FCF707FB116051609160D1601161B9
:1050000051619161D161116209F030FE09F0CAFB72
:10501000E068002818BF10BD4FF44C712D20FCF73C
:10502000F1FA00009C0D00200801002002494860B0
:10503000C968096808470000080100200B4910B53D
:105040000878002818BF0C2401D0204610BD002489
:105050000C604C608C60CC600C614C618C61CC61EC
:105060000C6209F003FE09F09DFBEEE79C0D0020A9
:10507000054910B5097801291CBF002010BD01F0B9
:105080007BFF002010BD00009C0D00202DE9F041A9
:1050900004468078C0F3C00058B13C23FF2220466C
:1050A000216A02F03FF811221E4904F18600FFF741
:1050B00085F9A0784FF0000510F0010F20D0206A8C
:1050C0003C26078809F0AAFAA8B9217884F8BB1011
:1050D000A4F8BC7084F8BA60607B10B984F8BE5044
:1050E00003E094F8480084F8BE0016220E4904F14B
:1050F000B000FFF763F9012084F88100BDE8F0817A
:105100004FF6FF773C2609F089FA0028F3D1217881
:1051100084F8BB10A4F8BC7084F8BA60607B0028E7
:10512000DFD1DBE7756F01000D6F01002DE9F8435A
:105130000D00044616D004F1300011F0FAFF38B922
:10514000A078C0F3C00088B104F1300012F01CF860
:1051500004F1300011F0A8FF0AF01CFD2179252090
:105160000AF0E4FC94F876104DB904E02046BDE85E
:10517000F84301F001BF0022204601F0ADF82E4EA9
:10518000B068C17811F03F0F14BF012200220179ED
:1051900011F0100118BF0121114214D011F079FA59
:1051A000074604F1300011F0C4FF401CC2B2204693
:1051B00021793B4601F08CFC0090032304226946D0
:1051C000B06811F043FA1D4F4DB3BD68B06811F0DF
:1051D00060FA804604F1300011F025FF814604F1A9
:1051E000300011F0A6FFA9EB0000401EC1B22079EB
:1051F000424611F0CEFF0544A078C0F3C00040B194
:105200007868012105442046FFF732FD2844C4F8A0
:1052100020012279294600200AF072FA30B1B068E4
:105220000AF020FA06203870BDE8F88340F6D8511D
:105230002D20FCF7E7F90000080100209C0D00205C
:105240002DE9F041734E0F00044627D004F13000E1
:1052500011F06FFFC0B9A078C0F3C000002838D0AB
:1052600004F1300011F0DFFE054604F1300011F0CA
:1052700060FF281AC0B211F0A7FF7168084470607F
:1052800004F1300011F080FF04F1300011F00CFF48
:105290000AF080FC217925200AF048FC5E4D94F844
:1052A00076800021A8680180017801F0DF0101709B
:1052B000618813292DD011DC102908BF02213DD0AF
:1052C000122908BF062139D040F272612D20FCF767
:1052D00099F92046BDE8F04101F04EBE152918BFEE
:1052E0001D29F1D14FF0010111F097FAA868B8F12A
:1052F000000F017801F0DF0141F02001017013D0AF
:1053000004F1770111F0ABFA0121A86811F0AEFAAF
:1053100016E0002111F081FAA868017801F0DF01A0
:1053200041F0200101700BE004F1700111F097FAD7
:1053300094F86F10A86811F099FA01E011F06DFA75
:10534000A04604F16901A86811F099FA98F868106C
:10535000A86811F09BFA60881D2818BF152805D091
:1053600094F85420216DA86811F047FAA8680AF053
:1053700079F90420307057B36088102823D004F1E5
:105380003000B56811F04FFE074604F1300011F00F
:10539000D0FE381A401EC0B26188282201F0D2FF28
:1053A0000544A078C0F3C00030B17068054411F026
:1053B0000FFF2844C4F820012279294600200AF072
:1053C0009FF920B913E02179002009F041FD6088A0
:1053D000132815D010DC102808BFBDE8F081122872
:1053E0000ED000BF40F6BC512D20FCF70BF940F663
:1053F000A8512D20FCF706F9152818BF1D28F1D15A
:105400002279BDE8F0414FF001014FF000000AF0B1
:1054100001BB00009C0D0020080100202DE9F04791
:10542000044682B00E4690F844000AF0B3FB61795E
:10543000FF200AF07BFB8B4D8B4F4FF0000866B1CD
:1054400062794FF4A57100200AF0A2FAA07810F05A
:10545000030F47D0002E40D044E0A86811F019F99E
:10546000814694F804A004F1300011F0DCFDBAF19B
:10547000080F04BF4FF4C87140220FD0BAF1040FD7
:1054800004BF4FF4BF71102208D0BAF1020F07BF5A
:1054900008F11801042208F12801082209F1050386
:1054A00013FB0211BA6800FB0121CA2202EBC010F3
:1054B00008443861A178C1F3C00111B1796808448A
:1054C00038610146627900200AF01AF90028BDD13E
:1054D00040F6F9512D20FCF795F862790121002062
:1054E0000AF098FA94F876102046002E7ED0618853
:1054F0004646C1F34000002808BF48F0080611F0F6
:10550000400F18BF46F04006002819BFD4F858A035
:10551000B4F85C90D4F850A0B4F85490A86807216F
:10552000A0F8008011F079F90021A86810F0E7FFD9
:1055300000223146A86810F0EBFF16F0080F16D0D5
:10554000B4F84500BDF80010022360F30B01ADF87C
:10555000001094F84600032201099DF8010061F350
:1055600007108DF801006946A86811F06FF8A86867
:1055700011F00EF8BA89C0F1FE00A9EB02018142D8
:10558000A8BF014601F0FF0802EB080048453ED2E3
:1055900046F010010022A86810F0BAFFA86810F0C9
:1055A000F7FFB989C0F1FE00A9EB01018142A8BF54
:1055B000014601F0FF08A86811F044F84044401C7F
:1055C000C6B2B4F84800B9684018D4F84011401881
:1055D00082B204F1690104F13600FEF70FFC84F891
:1055E0004400617933460122204600E036E001F0B4
:1055F0006FFA0090BDF800009DF80210032340EA06
:1056000001400190042201A9A86811F01FF8A078B8
:1056100010F0400F0ED0607994F8441094F91020E7
:10562000FEF7B6FB8DF80000012306226946A86844
:1056300011F00CF8B889424600EB0A01A86810F096
:1056400024FFB8894044B881A8680AF00BF8072005
:1056500038700120787002B0BDE8F087012200F0B8
:105660003BFEF1E7080100209C0D00202DE9F043EE
:105670004C4F814683B0387802281CBF3878032805
:1056800005D040F62D514FF02D00FBF7BBFF464CE7
:105690006568287B18B1FEF75BFB85F84700D4F8F6
:1056A00008C061684FF000089CF800000A6A00F02A
:1056B0000F06002A18BF92F87380B9F1000F53D07B
:1056C00001F1690391F86820C0090CF1090110F09B
:1056D000FCFB002848D06568052E26D1A06890F80C
:1056E000240000F01F0010281FD9E87BE8B1FF203C
:1056F0008DF800006A460521284601F061F990B353
:1057000095F8E8008DF804009DF8040058BBA068E7
:105710002222C11C05F1E90013F01DFF25222349B7
:1057200005F1E000FEF74AFE1EE04146A06810F0D9
:10573000B9FFC0B13A7860683146022A1CBF3A7896
:10574000032A05D040F606514FF02D00FBF75AFF13
:10575000E2683B7852696FF0070C0CEB8303D25878
:105760009047054601E0FFE70125B87B18B109F035
:105770007DFA09F017F8002D04BF03B0BDE8F083EF
:10578000606811F037FD38B109F0B2FAE06880685E
:1057900003B0BDE8F0430047606803B0BDE8F043E4
:1057A00001F0EABB9C0D002008010020C96F010038
:1057B00030B583B0032902D0052972D06DE00446CC
:1057C000FF208DF800006A460321204601F0F8F81A
:1057D000002862D0207B374D00283CD09DF8000087
:1057E00094F8D6108DF804109DF8041099BB227817
:1057F00084F8D720FF2811D004F1D902511EFDF7FB
:1058000011FF30B194F8D80040F0020184F8D810AC
:1058100012E041F208012D20FBF7F4FEA8680178A0
:10582000C1F3801284F8D820D0F80320C4F8D9201E
:10583000B0F80700A4F8DD0094F947007F2827D0CE
:1058400084F8DF007F2184F8471020221A4904F1F0
:10585000CE00FEF7B3FDA86800210180042110F0FE
:10586000DCFF04F16901A86811F009F894F86810E8
:10587000A86811F00BF894F85C20A16DA86811F0ED
:105880000EF80E4905200870A86809F0EBFE0EE03E
:1058900040F66C612D20FBF7B5FE03B0012030BD52
:1058A000FFE70749096811B188470028F5D003B020
:1058B000002030BD08010020DF6F01009C0D00209A
:1058C0001C0100202DE9F04F83B0032908D00529E1
:1058D00000F0F48001F050FB03B00020BDE8F08F31
:1058E0000446FF208DF800006A460321204601F09F
:1058F00067F8002800F0DE80207B774E00283CD03F
:105900009DF8000094F8D6108DF804109DF804104E
:1059100099BB227884F8D720FF2811D004F1D9024E
:10592000511EFDF77FFE30B194F8D80040F002011F
:1059300084F8D81012E041F208012D20FBF762FE36
:10594000B0680178C1F3801284F8D820D0F8032021
:10595000C4F8D920B0F80700A4F8DD0094F9470096
:105960007F287DD084F8DF007F2184F84710202233
:105970005A4904F1CE00FEF721FDA0782546C0F378
:10598000801A5748BAF1000F4068C0B214BF40F007
:10599000400920F040090021B0680180072110F083
:1059A0003CFF0021B06810F0AAFD00224946B06813
:1059B00010F0AEFD0623002205F16901B06810F079
:1059C00045FE95F86810B06810F060FFB06810F000
:1059D000DFFDB5F85C10C0F1FE008142B8BF08469B
:1059E000C7B2DFF80081B94239D9F81EC7B249F011
:1059F000100B00225946B06810F08AFDB06810F014
:105A000021FE3844401C00F0FF09B5F84800D8F8E2
:105A100008104018D5F84011401882B205F169010C
:105A200005F13600FEF7EAF985F8440069794B463E
:105A30000122284601F04CF80190BDF804009DF8C1
:105A40000610032340EA01400290042202A9B06834
:105A500010F0FCFD00225946B06810F059FD00E03E
:105A600023E0BAF1000F0ED0687995F8441095F94B
:105A70001020FEF78DF98DF804000123062201A9FC
:105A8000B06810F0E3FD3A46A96DB06810F0FDFC77
:105A9000A8F80C706179FF200AF048F8082088F80F
:105AA0000000B06809F0DEFD12E040F66C612D20C8
:105AB000FBF7A8FD204601F05FFA09E00A490968F2
:105AC00031B18847002802BF012003B0BDE8F08F44
:105AD000002003B0BDE8F08F08010020DF6F010057
:105AE000847200009C0D002018010020094A030068
:105AF000506801D001F040BA002908BF7047D16852
:105B0000054A096912786FF00F0303EB8202895886
:105B100008470000080100209C0D00202DE9F041FD
:105B20000446112218498630FEF748FC0522174921
:105B300004F1C000FEF742FCB4F8905094F88F6076
:105B400008F06CFD0027A8B9217884F8BB10A4F8F0
:105B5000BC5084F8BA60607B00281ABF94F84800F3
:105B600084F8BE0084F8BE701622094904F1B00022
:105B7000FEF724FC074807702146206ABDE8F04183
:105B8000022201F0ABBE0000756F0100656F0100DD
:105B90000D6F01009C0D002070B51C4D01210446C5
:105BA000A970303011F0C5FA28B12046BDE8704028
:105BB0000121FFF7BBBA6088C0F3001109BBA978C7
:105BC000F9B1B4F85410002908BF10F0010F12D138
:105BD00010F0020F08BF10F0200F0CD1686920B13F
:105BE00000F1400013F02FF928B9A86948B14030FE
:105BF00013F029F928B12046BDE870400021FFF7D5
:105C00000DBC2046BDE8704001F0B6B99C0D0020E7
:105C100070B504464088102810D0114DA87B20B1E3
:105C200008F000FE402009F02FF80E48806809F0C7
:105C300019FDA07810F0040F0BD105E02046BDE857
:105C400070400121FFF7FCBA00212279084609F0D3
:105C5000E1FE002009F042FB0220287070BD000028
:105C60009C0D00200801002010B5084CB0F85C2005
:105C7000A189914205D00121FFF7D0FB08202070B7
:105C800010BDBDE8104001F077B900009C0D002068
:105C900070B504464088214DC0F34001002908BF7B
:105CA00010F0010F2AD04FF000016279084609F088
:105CB000B1FEA078C0F34000002814BF0C202220C1
:105CC000617909F033FF03202870A87B48B108F000
:105CD000A9FD607910F00C0F0CBF4020452008F0A2
:105CE000D3FF607910F00C0018BF282009F0F6FAF5
:105CF0000B488068BDE8704009F0B4BCA889B4F8CE
:105D00005410884204D12046BDE8704001F034B9F7
:105D10002046BDE870400121FFF780BB9C0D0020AC
:105D20000801002070B51C4C6568287B18B1FEF78F
:105D30000FF885F84700194DA87B18B108F096FFB9
:105D400008F030FD606811F055FAA8B1606841882C
:105D5000C1F30012002A04BFC1F3C00100290BD017
:105D6000297802291CBF297803290AD040F6374137
:105D70004FF02D00FBF746FC6068BDE8704001F075
:105D8000FBB8E1682A78C9686FF0070303EB820269
:105D90008958BDE870400847080100209C0D00208C
:105DA00070B5044641880020092918BF70BD134D05
:105DB000A881687001212046FEF75AFF69680844EF
:105DC0006860B4F84800401CA4F84800FEF7D4FC12
:105DD0004FF47F71B0FBF1F201FB12006968002201
:105DE0000844686094F87610204600F075FA204662
:105DF000BDE870400121FFF799B900009C0D00201B
:105E00002DE9F04FAB4D044689B0287800287DD1AC
:105E10002078FF287AD00020A88168606870A87078
:105E200084F88100A44804AEA44F0FC886E80F0090
:105E3000F8684068079004A809F004FA09F06AFBC2
:105E40000AF030FA08F012FF08F0ACFC9C4809F0A8
:105E50005DFE9C4809F064FE00200EF095FC04F104
:105E6000300011F091F904F1300011F01DF909F042
:105E700091FE2179252009F059FE94F9100009F0CE
:105E8000E5FB2179002009F09DF80126A860002893
:105E900001BF2E70002009B0BDE8F08F04F1500161
:105EA000E06C0FF07CFF814604F15801E06C0FF0CC
:105EB00079FF8046B9F1000F1CBF94F82400002838
:105EC0004FD000BF4FF0010A207F002801BFA07E05
:105ED0000028A07810F0040F74D0D4E918016FF0F6
:105EE000004281EA020171EA000008D00DF030F9A9
:105EF0000246D4E91830D21A71EB000002D2BAF18E
:105F0000000F79D0FDF7E8FB6F4900E025E0A0FB2A
:105F100001BA0DF01DF910EB0B0041EB0A01C4E9C9
:105F200018014FF0010BE07EFDF7DCFA8246A07EFF
:105F3000002818BFBAF1000F03D0E07EFDF7C6FAC3
:105F4000C8B194F8820000281CBF207F00282BD005
:105F500094F8680001281CD021E009B00C20BDE8AD
:105F6000F08FB8F1000F1ABF94F8250000284FF009
:105F7000000AA7D1A8E7324684F8686004F16901F5
:105F800050460FF0DAFFE17E04F16900FDF7B6FA42
:105F90000AE094F86E0000F0C000402813D0594683
:105FA00004F169000FF0B8FFA07810F0040F23D0BF
:105FB000E07EFDF7DDFA5FEA000A1DD01021FDF753
:105FC00091FE40B118E0FDF751FA324604F1690143
:105FD0000FF0B3FFE8E7324684F8766004F177010A
:105FE00050460FF0AAFF04F17701B86810F037FCB3
:105FF0000121B86810F03AFC94F8841049EA0800CE
:106000008DF800109DF80010002918BF01210843E9
:1060100019D0A078C0F30010002804BFB4F84500E0
:10602000C0F30B060FD100BFFEF7A6FBC0F30B00B9
:10603000B042F9D0B4F8451060F30B01A4F8451054
:10604000002084F88400FDF741FCB868C01CFDF70F
:10605000F9F9A873A07810F0010F27D01B48D0E9F8
:106060000210CDE90210FF20287702A8266AFBF76C
:106070004FFDD8B9029CB44213D0727A607A06F10F
:106080000A0304F10A010FF020FF50B1A07828772D
:10609000D4F80300C5F81D00B4F80700A5F82100E6
:1060A00004E002A8FBF734FD0028E3D009B000208B
:1060B000BDE8F08F9C0D0020A872000008010020B0
:1060C000D6BE898E5555550040420F00847200009F
:1060D00070B582B00446FFF793FE00281CBF02B0E3
:1060E00070BD207803210FF009FD224D0521686164
:1060F00020780FF003FDA8616969002918BF002806
:1061000005D040F694214FF02D00FBF77BFA28785C
:1061100001282BD094F88300002650B16846FDF783
:106120004BFE30B1694604F1360010F03FF984F8B7
:106130008360B4F84800A9684018D4F840114018AA
:1061400082B204F1690104F13600FDF757FE84F8CC
:106150004400A0784FF00001C0F300100028204652
:1061600002D0FFF76DF801E0FEF7E0FF02B000207B
:1061700070BD00009C0D00202DE9F041544D554CA0
:106180006E6820780027002808BFBDE8F0812078DD
:1061900002281CBF207803280CD1307B20B1B046E8
:1061A000FDF7D6FD88F84700A07B18B108F05EFD2A
:1061B00008F0F8FA0EF0CCFA287878B1304611F0F1
:1061C00019F858B168684188C1F3C00282B309293F
:1061D00009D0BDE8F0410121FFF732B83046BDE8F3
:1061E000F04100F0C9BEA781064667700121FEF7A5
:1061F0003FFD616808446060B6F84800401CA6F89E
:106200004800FEF7B9FA4FF47F71B0FBF1F201FBE1
:106210001200616800220844606096F876103046EB
:1062200000F05AF86868BDE8F0410121FEF77EBF32
:1062300062781AB1BDE8F04100F09EBEC1F30011D2
:1062400079B10446303010F074FF28B12046BDE823
:10625000F0410121FEF7F4BF2046BDE8F04100F017
:106260008BBE0546303010F064FF28B12846BDE8EB
:10627000F0410121FEF75ABF6888C0F3001109BB45
:10628000A178F9B1B5F85410002908BF10F0010F3A
:1062900012D110F0020F08BF10F0200F0CD160696E
:1062A00020B100F1400012F0CEFD28B9A06948B13C
:1062B000403012F0C8FD28B12846BDE8F041002169
:1062C000FFF7ACB82846BDE8F04100F055BE00002D
:1062D000080100209C0D00202DE9F04F8FB00446EE
:1062E00000208A46069061889046834611F0030F8D
:1062F0000FD011F0010F01F0020005D0002808BFF7
:106300004FF0010B05D00EE0002818BF4FF0020B34
:1063100009D00027FF4E0D4611F0010F01F00200D9
:1063200015D028B117E040F29F612D20FBF76AF9E4
:1063300015F0040F0FD047F00800B8F1000F0EBFA2
:1063400040F0100940F0010040F00209E0E010B117
:1063500015F0040F0FD0EF4815F0070F406911D06A
:1063600015F0010F05F0020267D0002A08BF15F0F2
:10637000040F4FD06FE0B8F1000F18BF47F00909C4
:1063800052D165E0B8F1000F07D047F0080978B3A3
:10639000403012F058FD58B331E0B4F85420002AD0
:1063A00008BF11F0010F11D111F0020F08BF11F059
:1063B000200F0BD120B100F1400012F044FD28B9AC
:1063C000B06948B1403012F03EFD28B147F01809DD
:1063D00015F0200F03D09BE047F0010998E02079E9
:1063E00010F00C0018BF0120C04360F300098FE0DB
:1063F000FFE7B06928B1403012F025FD08B149F03F
:10640000200915F0200F0FD1207910F00C007DD05D
:1064100001207BE047F00800B8F1000F05D021799A
:10642000022907D040F0010972E0217940F0100004
:106430000229F7D020F001096AE0002A18BF15F000
:10644000040F08D0B8F1000F18BF47F00B095FD157
:1064500047F018095CE015F0030F60D115F0040F48
:106460005DD0B8F1000F07D047F00809B8B340304D
:1064700012F0E9FC98B33AE0B4F85420002A08BFBF
:1064800011F0010F11D111F0020F08BF11F0200F10
:106490000BD120B100F1400012F0D5FC28B9B06951
:1064A00088B1403012F0CFFC68B147F0180915F000
:1064B000200F0BD0207910F00C0018BF0120C04332
:1064C00060F3410924E047F0030921E0207910F04E
:1064D0000C0018BF0120C04360F30009EAE700E0A8
:1064E00014E0B06928B1403012F0ADFC08B149F0B9
:1064F0002009207910F00C0118BF012161F3410936
:1065000015F0200F04D110F00C0081D160F30009C8
:1065100015F0400F2FD0B8F1000F05D029E040F260
:1065200042712D20FBF76EF8B4F85400002804BF28
:10653000608810F0010F18D110F0020F08BF10F0A2
:10654000200F12D1706920B100F1400012F07BFCE5
:1065500058B9B06918B1403012F075FC28B915F07F
:10656000010F08BF15F0020F03D0207910F00C0FB7
:1065700001D149F04009684F4FF000014D46B8681D
:10658000B8F1000F0180017801F0DF0101704FF0D8
:1065900007013AD010F041F9B06950B1403012F023
:1065A00052FC30B1B06990F8BD0000281CBF0A2031
:1065B00006905946B8680FF0A2FF2946069AB868B7
:1065C0000FF0A6FF15F0010F0BD00623002204F1F7
:1065D0006901B86810F03AF894F86810B86810F0DB
:1065E00055F915F0020F1CD0B868BAF1000F4FF042
:1065F00006034FF001020BD004F1770110F026F8EA
:106600000121B86810F032F90BE010F006F9D0E77C
:1066100004F1700110F01AF894F86F10B86810F0D7
:1066200025F915F0040F04D040F698012D20FAF753
:10663000E9FF15F0080F18D000200890B4F84500C5
:10664000BDF82010022360F30B01ADF8201094F880
:106650004600032201099DF8210061F307108DF81F
:10666000210008A9B8680FF0F1FF15F0200F7CD0C9
:10667000D4E9500108910090B06900280CBFD6F809
:1066800014908146D9E918AB13D000F1400012F004
:10669000DAFB70B1B06990F8BD0050B109F140006B
:1066A00012F01EFC28B9D9F8480010EB0A0A4BF189
:1066B000000B99F8100019493369DDF800C031F872
:1066C00010004FF47A7100F2E730B0FBF1F0C1171F
:1066D00010EB0A0041EB0B01DDF820A013EB0C0CD2
:1066E0004AF10002B0EB0C00D4F834C161EB0201B6
:1066F000ACEB03034FEAE37C01221B1A7CEB0103A2
:10670000A8BF00229DF8053023F040038DF8053026
:1067100006E000009C0D002008010020947200009B
:10672000DFF894C24FF0000ABCEB000C7AEB010CCE
:10673000B8BF0022B0F5703C71F100011DDB002AEA
:106740001CBF43F020018DF8051016D0C9B2C1F36B
:106750004011002908BF1E2104D0002918BF4FF4A2
:10676000967157D0B0FBF1F000E04FE0BDF8041097
:1067700060F30C01ADF804100BE023F020018DF85C
:106780000510002AE2D1BDF8040000F46040ADF825
:106790000400D9F8481040F2E240B1FBF0F0ADF847
:1067A000060099F81830D9F8152099F8191063F3F4
:1067B0001F62DDF80900DDF8053061F31C6062F34B
:1067C0001F63110A61F31700CDF80530CDF80900F9
:1067D00007F0C8FF01469DF80C0061F347108DF8E3
:1067E0000C009DF8050020F080008DF80500D9F818
:1067F0000000CDF80D00D9F80400049960F31F21C2
:106800000491B9F85200401CADF81400B8F1010F22
:1068100061D104E040F251310620FAF7F3FEB4F8FA
:106820005400E8B3A078C0F34000C8BBB8680FF0CC
:1068300009FF401C00F0FF0AB4F85420B089111A77
:10684000CAF1FF008142B8BF084600F0FF094A457F
:1068500039D9A07810F0010F35D145F0100529463F
:10686000069AB8680FF054FEA9F1030101F0FF0980
:106870000AF10300484400F0FF0AB4F84810B06879
:106880000818D4F84011401882B204F1690104F1EB
:106890003600FDF7B3FA84F844006179534600E00E
:1068A00019E00122204600F013F90690BDF8180007
:1068B0009DF81A10032340EA01400A9004220AA915
:1068C000B8680FF0C3FE4A46216DB8680FF0DDFDD1
:1068D000B0894844B08115F0200F05D0122305225D
:1068E00001A9B8680FF0B2FE15F0400F14D0B8F14E
:1068F000000F1CBF657994F8440057D0014694F905
:1069000010202846FDF744FA8DF8000001230622E6
:106910006946B8680FF09AFEB069E0B3403012F0F3
:1069200092FAC0B3B06990F8BD00A0B30721B8686F
:106930000FF026FE0921017032214170B16991F8F2
:1069400090108170B169B1F89010090AC170B169F5
:10695000D1F89010090C0171B169D1F89010090EAD
:106960004171B16991F8A1108171B169D1F8942098
:1069700040F2E241B2FBF1F2C271B269D2F8982062
:10698000B2FBF1F10172B1690C4AD1F89C10A2FB83
:106990000121C90841720020002804BF0FB0BDE8E2
:1069A000F08F40F6FD012D20FAF72CFE257904F139
:1069B000300010F048FBA1E7FF7F2500D34D6210A7
:1069C0002DE9F04790460D46044603291BBF94F875
:1069D000800000284FF000094FF0010908F07AF913
:1069E0000646032D08D00127052D02BFA07810F020
:1069F0000100BDE8F08707E0A0780227C0F340005F
:106A0000002808BFBDE8F087B9F1000F59D12E4822
:106A1000807B40B10FF0FDFA88F80000FF2802D01B
:106A2000FCF71AFE0643294D94F86F2004F1700319
:106A3000A96811F8030BC0F380100FF046FA98F81C
:106A40000010FF2904D0B8B9E07E884216D113E0C7
:106A5000A0B1A96811F8030BC0F38010FCF70EFE7B
:106A60008046FCF77FFE38B14046FCF781FD18B147
:106A70001021FDF737F908B1012000E00020A178CE
:106A800011F0040F01D0E0B118E0BEB9607C00281D
:106A900018BFB84215D1A96811F8030BC0F38010D4
:106AA000FCF7ECFD0446FCF75DFE38B12046FCF730
:106AB0005FFD18B11021FDF715F910B10120BDE8F7
:106AC000F0870020BDE8F0879C0D00200801002021
:106AD00008B54FF0000CCDF800C0082904BF4FF4F2
