:10000000104500203D4A0000DBE70000114A0000D7
:10001000114A0000114A0000114A0000114A000074
:100020000000000000000000000000006542000029
:10003000114A0000000000000D420000114A0000BB
:10004000E5420000E5420000E5420000E542000014
:10005000E5420000E5420000E5420000E542000004
:10006000E5420000E5420000E5420000E5420000F4
:10007000E5420000E5420000E5420000E5420000E4
:10008000E5420000E5420000E5420000E5420000D4
:10009000E5420000E5420000E5420000E5420000C4
:1000A000E5420000E5420000E5420000E5420000B4
:1000B000E5420000E5420000E5420000E5420000A4
:1000C000E5420000E5420000E5420000E542000094
:1000D000E5420000E5420000E5420000E542000084
:1000E000E5420000E5420000E5420000E542000074
:1000F000E5420000E5420000E5420000E542000064
:10010000E5420000E5420000E5420000E542000053
:10011000E5420000E5420000E5420000E542000043
:10012000E5420000E5420000E5420000E542000033
:10013000E5420000E5420000E5420000E542000023
:10014000E5420000E5420000E5420000E542000013
:04015000E542000084
:1001540053B94AB9002908BF00281CBF4FF0FF312A
:100164004FF0FF3000F00CB8ADF1080C6DE904CE8F
:1001740000F008F8DDF804E0DDE9022304B070477C
:10018400704700BF2DE9F04786468C460846089E16
:10019400154674461946002B40F0C1808542B2FAD8
:1001A40082F245D94AB1C2F1200300FA02FC95401B
:1001B40094402EFA03F343EA0C0C4FEA154EA8B20E
:1001C400230CBCFBFEF80EFB18CC08FB00F943EA39
:1001D4000C43994528D9EB1808F1FF3704D2994507
:1001E40002D9A8F102072B44A3EB0903A4B2B3FB81
:1001F400FEFC0EFB1C330CFB00F044EA0344A0425B
:1002040014D92C190CF1FF3304D2A04202D9ACF159
:1002140002032C44241A43EA07401EB1D4400023AD
:1002240034607360BDE8F0874746DDE76346F1E775
:1002340092BB431B01214FEA154EAFB2200CB3FB16
:10024400FEFC0EFB1C330CFB07F840EA0343984505
:1002540061D9EB180CF1FF3004D2984502D9ACF106
:1002640002002B44A3EB0803A4B2B3FBFEFC0EFB79
:100274001C330CFB07F744EA0344A7424DD92C195D
:100284000CF1FF3304D2A74202D9ACF102032C448F
:10029400E41B43EA0040C0E7C2F1200395409440C8
:1002A40020FA03F12EFA03F34FEA154E9040AFB251
:1002B4000343B1FBFEFC0EFB1C10190C0CFB07F8EE
:1002C40041EA0041884522D969180CF1FF3004D273
:1002D400884502D9ACF102002944A1EB08019BB284
:1002E400B1FBFEFC0EFB1C110CFB07F743EA0143B8
:1002F4009F420ED9EB180CF1FF3104D29F4202D970
:10030400ACF102012B44DB1B41EA004193E7604658
:10031400E3E76146F7E76046A4E76346B8E783424C
:1003240006D916B9002108467CE7C6E900E0F9E7DA
:10033400B3FA83F78FB9834201D3724508D8BEEB71
:10034400020460EB030301209C461EB9002169E707
:100354003846FAE7C6E9004CF8E7C7F1200CBB4081
:100364000EFA07F522FA0CF42EFA0CF1BA401C43EB
:1003740020FA0CF3B8404FEA144901431FFA84FEF3
:10038400B3FBF9F809FB18300B0C08FB0EFA43EA2F
:1003940000439A4540D9E31808F1FF3004D29A4546
:1003A40002D9A8F102002344A3EB0A0389B2B3FBE8
:1003B400F9F809FB183308FB0EFE41EA03418E45A8
:1003C4002CD9611808F1FF3304D28E4502D9A8F163
:1003D4000203214443EA0040A1EB0E01A0FB029872
:1003E4004145CE46434602D306D14D4504D2013899
:1003F400B9EB020E68EB0403002EA7D0B5EB0E0296
:1004040061EB030101FA0CFC22FA07F3F9404CEA10
:100414000303C6E9003199E74046C5E74346D9E7F7
:1004240008B505480CF0C8FB00F0A8F8BDE8084082
:10043400024903480CF0C0BB121801004A1801001D
:100444003618010070B503788AB004460E4607AD2D
:10045400032B20D8DFE803F002191B1D114928469D
:100464000EF0F0F9059563781E210493A3783046C5
:100474000393E3780C4A02932379019363790093FD
:10048400A3790CF0A6FB0AB070BD0849E7E7084958
:10049400E5E70849E3E70A212846074A0CF099FBF7
:1004A400E0E700BF4F180100711801005618010061
:1004B4005D18010067180100BB27010030B505462F
:1004C40091B01E220C4608A800210EF03AFA6946A3
:1004D4002868FFF7B7FF2B689A79F22A40D15A7936
:1004E400452A3DD11A79C22A3AD1DA781D2A37D160
:1004F4009A78B32A34D15B78462B31D122681179AA
:1005040001292DD15379022B2AD1507AFF2827D1E2
:100514001448D27A0170144914480B70144BDA70E1
:100524002268127B9A702268527B5A702268927BEE
:100534001A7021680F4AC97B1B68D1702168097C35
:1005440091702168497C51702168897C11702168FF
:100554001268D1F8E11009BA016007480CF02CFBCD
:1005640011B030BD3B0400203A0400207812002072
:1005740074120020701200209418010010B586B087
:100584001422002101A80EF0DCF901224FF03013EF
:100594000020CDE9022305F00BFE044630B10146EC
:1005A4000E480CF009FB204606B010BD0C4B186039
:1005B4000C4806F0C3FC0C480CF07CFA0DF0DAFD94
:1005C40001460A480CF0F8FA094901A806F0AAFB0A
:1005D40004460028E7D001460648E2E7B6180100C1
:1005E40078120020B001002034040020D618010045
:1005F400A9CA0000F11801002DE9F04F91B0009351
:1006040002F004030293C2F3C203013384070546D4
:100614000E46DDF868800392059340F0BD81041D09
:1006240030B1072909D86FF01B0011B0BDE8F08F75
:1006340001F00706341DC6F10806009B4FF00009BF
:100644004FF0040A591E4FF0FF334F460193CB4637
:100654005346CDF810900DB1009A226005980028F9
:1006640000F3EB809948009A824203D3984882426F
:10067400C0F0E380039AA4EB050E92074FEA9E00B4
:1006840000F106810F2F00F2B480002D00F00881E4
:1006940007F140020DEB020C019A0CF8200C0CF847
:1006A400102C049801300490EAE07A2860D84B2892
:1006B4000ED847285CD829282FD8252855D057D8B4
:1006C40020287DD02338D0F1000B4BEB000B77E0D2
:1006D400A0F14C0CBCF12E0F4AD8DFE80CF07149A4
:1006E400494949494949494949494C494949494973
:1006F4004949495A494C4C5A5A5A714C6E497149A4
:10070400184C18494983804C49494C4980000020C1
:100714004FF0000B4FF0040A39E00122A0F12A0C3B
:100724005FFA8CFC02FA0CFC1CEA0E0F48D11CF098
:1007340062502ED11CEA020B42D0013C5444CAF14F
:10074400000C04EA0C04002D61D0A3EB050CA444B6
:10075400B4453FF668AF002868D1042B47D158F858
:10076400043B2360042304342AE0019A013A0192F1
:100774004FF0000B24E011F8010C6C2834D1002058
:1007840011F8023C83466C2BC4D14FF0080A53463F
:10079400D3E708F1070828F00708073424F0070412
:1007A400F8E802AB35B106982044B0423FF63BAFBF
:1007B400C4E900AB4FF0000B08344FF0080A53466D
:1007C40011F8010F002878D0BBF1000F7FF46DAF52
:1007D4002528F5D14FF0010B019B013301934FF014
:1007E400040AECE7584693E700208346A5E7082B64
:1007F40002D06FF0150018E708F1070828F0070881
:10080400F8E80223C4E9002308230834D8E768B9C8
:10081400042B02D108F10408A4E7082BE9D108F15C
:10082400070828F0070808F10808EDE7059A013AD7
:10083400059258F8042B00920DE7039A900720D5EF
:100844004FF0010CA4EB050E4FEA9E00BEF5007FAD
:10085400CFD20F2FCDD8F5B107F140020DEB020E28
:10086400019AC0B20EF8200C0EF8102CBCF1000F47
:100874003FF417AF60F07F000EF8200C09F1010976
:100884000137C5F108024FF6DA7E0434069297E781
:100894004FF0000CDAE7BCF1000F01D00136EFE7AE
:1008A400029802360028EBD10098CDE906310DF00C
:1008B400E7FFDDE906310644E2E7631BB3F5806F29
:1008C40097D23DB9A6F10804E018AEE6000D010088
:1008D400EC390100029A9B0828602B709DF81030B7
:1008E400C2B1EB7085F80290B9F1000F05D0002277
:1008F40008A8C5F1010C97420ED14FF0000AC5F1CA
:1009040001030DF1200801930DF1300B574512D16D
:10091400601B8AE66B70E5E710F8013B190608D501
:1009240004EB0C0EB64503F07F033FF67CAE04F8EF
:10093400013B0132DFE7B9F1000F03D098F9002041
:10094400002A17DB029BD3B11AF80B2004F8012B01
:100954000022019B98182044B0423FF664AE98F8F8
:100964000000009904F8010B204603920DF0DEFF0D
:10097400039A14440AF1010A08F10108C6E798F839
:10098400002055F822300093029B009845F822304D
:100994000DF076FF421CDCE76FF00D0045E600BF6A
:1009A4002DE9F04F95B000AFD7F878B0BB61CBF329
:1009B400C00304467A623B61396251B90D4603783B
:1009C4004678807800EB83002044AE421AD8031B9B
:1009D4003B6294F80290E3784E467B61B9F1000FD4
:1009E40002D01BF0010F16D17B6953BB7B6A1BB18C
:1009F4002046BA69396A98473D6A28465437BD4645
:100A0400BDE8F08F00F1010840460DF039FF0130D8
:100A140040440135D9E7636894F800A0FB617B6A20
:100A24004FEA8A02FA6004EB8A0A002B40F0048140
:100A3400D04600263D6A09EB0A03434550D1CA4417
:100A440013E01BF0020FD1D094F800A04FEA8A0300
:100A5400FB60636804EB8A0AFB617B6A002B7AD132
:100A64003D6AB9F1000F50D14E461BF0050F0CBF83
:100A7400022301237B627B690AEB43090BF0020327
:100A84003B62CA45B9D01AF8021B1AF8013C54F863
:100A94002380AE4B984502D3AD4B98453BD33B697D
:100AA400002B45D0F8690CF04BF8002840D0E846FC
:100AB4008AB06A46A74B5361A74B9361FB69C2E9AD
:100AC400073140F201339384A44B42F8103F0023D2
:100AD4004FF43251A24801F079FA023DC546D0E7FD
:100AE40018F8012B7B6254F822000DF0C9FEFA6F4E
:100AF4007B6A01303AB1D7F8802096423EBFFA6F44
:100B040022F816000136054497E71BF004061CBFC3
:100B14007E6ACA44A9E73B6923B1F8690CF010F86E
:100B24000028C4D11BF0010F05D17B6AED1AA8E798
:100B34003B6A002BA5D040460DF0A2FEFB6F43B1EB
:100B4400D7F880309E423FBFFA6F431C22F816301C
:100B54000136054495E7B9F1000F72D01BF0040685
:100B640072D0C846002607F140004A4651460DF0AF
:100B7400DDFE7B69CA445B00BB607B690AEB43030F
:100B84007B610BF002037B607B699A455ED123781D
:100B94001BF0020FFB61637818BF002106EB030210
:100BA40008BF4FEA58011BF0010FD2B240F09D80FC
:100BB4001BF0040F14BF4046002094F802B094F8D0
:100BC40003A03B616270A070E1702046BA69F968C5
:100BD4007B6A9847051EFFF610AFFB6941462370F8
:100BE4003B69BA69637084F802B07B6A84F803A035
:100BF40007F140009847B0F10008C0F2A3803B6AB7
:100C0400BA69A3EB0901FB687869C91ABB68C91AF8
:100C14007B6A98470028C0F297804FF0000BA844E5
:100C240008EB000507F1300AB34560DB0021BA691F
:100C340008467B6A9847E0E64FF0000807F1300069
:100C440093E74E46C84694E7B04692E71AF8021B6B
:100C54003E4A1AF8015C54F82530934202D33C4AC8
:100C640093421CD33B6923B1F8690BF069FF002858
:100C74008AD17B68F3B908F1280207F128000244FD
:100C840008F1010302F8101C07F1500208F10208F0
:100C940052FA83F35FFA88F803F8105C74E73B694F
:100CA4002BB1F8690BF04CFF00287FF46DAF1BF0FB
:100CB400010F09D006F1280207F12801731C561808
:100CC40006F8205CDEB25FE71BF0040F3FF45CAF74
:100CD40008F1280207F1280108F1010302EB0108D9
:100CE40008F8105C5FFA83F84EE7002065E71BF80C
:100CF4000A3054F8239087F82F30FB6FFBB133F898
:100D04001B800121BA697B6A07F12F0098470028EC
:100D14001ADB0544B8F1000F06D148460DF0B0FDCA
:100D240000F101081FFA88F841464846BA697B6A0F
:100D34009847002808DB05440BF1010B74E7D7F84A
:100D44007C80DEE7454658E6054656E6000D010080
:100D5400EC39010011190100B81901000500000166
:100D64001C110100014B1860704700BFBC0100203A
:100D740030B5002587B0CDE903010446009503A9E9
:100D84000548059500F02EF9DDE904309842B8BF16
:100D9400255407B030BD00BF93CB00002DE9F047C8
:100DA400058B04462807904611D4022905F007054F
:100DB40040F0CD8020460CF0C9F978B10138218B80
:100DC400042811D8DFE800F0C3106D8595000129CF
:100DD4000CBF45F0100545F02005258388F31188E4
:100DE400BFF36F8FBDE8F08701F0070AAA4500F052
:100DF400A6800027B9463E46A368002B00F0BD80BC
:100E040041F00801218388F31188BFF36F8FA16833
:100E1400002900F0BB800D68002900F0B78033463C
:100E240052462046D1F80480C047002D76D02B6866
:100E340029461D46F0E701F007035A1F012A1BD873
:100E4400002221F00701062B276889B2C4E9002299
:100E540009D13B4603E0628B013262831B68002B9D
:100E6400F9D141F00201204621830CF06FF90028EA
:100E74007BD041F0200177E0042B0AD121F0070157
:100E840089B2204621830CF061F910B141F02001B0
:100E94002183218B01F0070AAA4550D00027B946C7
:100EA400AAE7236921F0070141F00601062DD3F8D2
:100EB400009021832DD1B9F1000F40D041F00801F9
:100EC400218388F31188BFF36F8F20463949C847BF
:100ED40029E021F00701236941F0040189B2042DBE
:100EE400D3F804902183E6D000274FF0040A3E464D
:100EF40082E721F00701236941F0050189B2052D3C
:100F0400D3F808902183D6D000274FF0050A3E4637
:100F140072E700274FF0060A3E466DE72B4687E747
:100F2400B9F1000FD1D14FF02003EFF3118883F30F
:100F34001288BFF36F8F238B23F008032383258B41
:100F4400EA062ED525F01003238305F0070566690C
:100F5400218B002EBFF66FAF00232768C4E900334E
:100F640021F0070141F001012183218B4FF0000999
:100F740001F0070AAA457FF43FAF002F9BD041F050
:100F84000801218388F31188BFF36F8F002FC7D026
:100F94003D6839463346524620460CF003F92F4645
:100FA400F4E7AB067FF51AAF25F02003238305F0A1
:100FB4000705FFE6D5D1000010B5094C0A4491425B
:100FC40000D110BD11F8013B58400309E35C000156
:100FD400C0B243401809205C1B01DBB25840EEE765
:100FE400E21901002DE9F04F81468B4617461C4655
:100FF400002595B0387808B9284657E37B1C252886
:10100400039306D05946C8470028C0F24F830135E0
:10101400FBE1182200210EA80DF093FC7B78252B10
:101024007DD0002398469E469C461E46781C014669
:1010340010F8012B2B2A00F0A18000F29880202ABE
:1010440000F09F80232A00F09F802BB19DF8403050
:1010540043F040038DF84030B8F1000F05D09DF8FF
:10106400403043F020038DF84030BEF1000F05D02E
:101074009DF8403043F010038DF84030BCF1000F70
:1010840005D09DF8403043F008038DF840302EB170
:101094009DF8403043F004038DF840309DF8403013
:1010A40003F04400442803D16FF386138DF84030D5
:1010B4009DF840302A2A43F080038DF840307FD1D8
:1010C4009DF841204B1C42F001028DF841201A7812
:1010D4002E2A0CBF012100219DF8412061F3410219
:1010E4008DF8412078D15A782A2A6ED000224FF008
:1010F4000A0C0133194611F8010BA0F13006092E30
:1011040040F295809DF840101292C1F3400040EAED
:10111400D2700A4660F341028DF840205CE0BA1CAC
:1011240003928DF843309DF84130DA0740F12E8167
:1011340054F8048BB8F1000F07DA9DF84020C8F189
:10114400000842F004028DF840205E0740F1278138
:1011540054F804ABBAF1000F80F226819DF84130B7
:101164006FF341038DF841304FF0FF3A1CE12D2A13
:101174000DD0302A7FF469AF012358E74FF0010CFA
:1011840055E74FF0010E52E74FF001084FE70126F3
:101194004DE703460EFB0262303A184610F8016B25
:1011A400A6F1300CBCF1090FF3D999428FD09DF808
:1011B40040101192D20F62F341018DF8401086E77E
:1011C4000B4600224FF00A0EE7E79DF84120023358
:1011D40042F004028DF841201A786C2A47D02BD8AB
:1011E400682A31D06A2A4BD04C2A51D01A4612F8B8
:1011F400013B782B03928DF843309DF8412000F297
:10120400BE806D2B51D8692B00F2B980572B67D85B
:10121400412B03D0453B022B00F2B18004229DF800
:10122400423062F302038DF84230012373E00CFB79
:1012340002020B46303A5DE7742A25D07A2AD5D1CA
:1012440006219DF841200CE05A78682A9DF8412037
:1012540006D1012161F3C6028DF841200233C5E7AE
:10126400022161F3C6028DF841200133BEE75A78AA
:101274006C2A9DF8412001D10421EBE70321F0E71A
:1012840005219DF84120ECE707219DF84120E8E77E
:10129400BDF8402022F4F04222F0020242F48042DF
:1012A40042F00202ADF84020DFE76E3BD9B20123E1
:1012B4008B4040F282410B4237D113F0240F51D1BD
:1012C400D8075CD503219DF8423061F302038DF801
:1012D400423002F07803A3F140014B424B411AE043
:1012E4000120A3F15801C9B200FA01F111F4624FCF
:1012F40094D140F6010631421DD111F4043F3ED091
:101304009DF8423060F3020302F07802402A8DF81F
:10131400423034D000239DF84020C2F340010B43F7
:1013240063F341028DF84020FDE602219DF842302E
:1013340061F30203E8E702209DF8421002F078020C
:1013440060F30201402A8DF8421002BF9DF840105C
:1013540041F001018DF84010632BDBD1131E18BF3F
:101364000123D8E703219DF8423012F0780F61F38E
:1013740002038DF8423014BF01230023CBE79DF80C
:10138400403043F001038DF84030C3E79DF940201D
:10139400002AACBF4FF0FF38DDF84480D5E698074B
:1013A4007FF5E2AEDDF848A00023CDE911339DF8C6
:1013B40042309DF8411003F00703012BC1F3C30130
:1013C40033D1CB1E042B04D8DFE803F02146462199
:1013D4002100236801294FEAE372CDE90E321CD1C2
:1013E4009DF93830DA17CDE90E3204349DF84030D7
:1013F40013F0030650D03A4659464846039B0BF077
:10140400D3FF0028C0F252810544039FF2E554F84B
:10141400043BDA17CDE90E32E8E70229E5D11AB226
:1014240043F3C033CDE90E23DFE7022B24D1CB1ED7
:10143400042B04D8DFE803F0181010181800012951
:101444004FF0000254F8043B14D00229CDE90E32C7
:10145400CCD19BB20E93C9E7073424F00704F4E817
:101464000223CDE90E23C1E754F8043B0E93002375
:101474000F93BBE7DBB2CDE7042B08D1073424F08C
:101484000704D4E900230834CDE90E23AEE7032B87
:10149400ACD154F8043BDDE79DF843007828B4D878
:1014A40062281CD825283FF4ADAD5828ADD1DDE91C
:1014B4000E010DF13603009310AA08AB0BF02EFFBA
:1014C400BAF1000F074680F29980002F9DD00DF1EC
:1014D4003603D81B002E00F0C0800130BDE0633815
:1014E400152892D801A252F820F000BFC5150000BB
:1014F400D71500000F1400000F1400000F14000093
:101504000F140000D71500000F1400000F14000082
:101514000F1400000F14000063160000FB150000F8
:10152400211600000F1400000F14000049150000DC
:101534000F140000FB1500000F1400000F1400002E
:10154400FB150000BAF1000F0E9F35DB51463846FB
:101554000DF09DF907EB000A002F3FF456AF00266B
:101564009DF8423013F01002059200F09280023090
:101574005B06119A48BF129B104448BFC018B8F1CB
:10158400000F049240F39F809DF84020A8EB0008D0
:10159400C2F380035007069300F19580510640F191
:1015A40088803EB159463046C84700287EDB069BFA
:1015B40001351E4630227DE038460DF061F9C9E759
:1015C4000E9B002601208DF8203008AF0DF1210A72
:1015D400C6E719075ABFC3F300135E012B26DDE9E2
:1015E4000E23002BBFF663AF524263EB43032D2659
:1015F400CDE90E235BE7002659E700269DF840203D
:101604000DF13603DB1B6FF386129A458DF84020EB
:101614007FF65BAFAAEB0303119356E70E9890B3E2
:101624000DF136030093002108AB10AA0BF076FEEF
:10163400BDF84230BAF1000F03F0EF0343F4F04376
:1016440043F010030746ADF84230D6DA00283FF4E1
:10165400DCAE00260DF13603181A9A4680E70E9B7D
:1016640007293FF6D2AEDFE801F00C04060C0808A7
:101674000C0C1D70C9E61D80C7E6EA17C3E90052C9
:10168400C3E61D60C1E62F4F064607F1050A052093
:1016940066E71A0748BF01306AE7104607930692C7
:1016A4005946C847DDE90623002804DA15B0BDE829
:1016B400F08F202243461946002903F1FF33ECDC66
:1016C400454498466D1A2EB159463046C8470028FD
:1016D400ECDB01359DF84230DA0601D41B0705D551
:1016E40059463020C8470028E0DB0135059B33B15B
:1016F40059469DF84300C8470028D7DB0135049EAE
:101704002E4405E059463020C8470028CEDB013579
:10171400731B002BF6DC53463A46594648460BF0F9
:1017240043FE0028C2DB0544A844A8EB0503002BB4
:101734007FF76BAE59462020C8470028B6DB013539
:10174400F3E700BFF219010008B54FF02002EFF3F0
:10175400118382F31288BFF36F8F03F09DF903485E
:101764000BF02AFA02F03CFCFCE700BFF819010078
:1017740010B5094B094C00F01F024009012818BF9D
:10178400234603EB8203D3F8002222F0E04242EA2C
:101794000172C3F8002210BD002884500025845033
:1017A400F8B54FF02003EFF3118783F31288BFF3EA
:1017B4006F8F0125214B224EC3F8005502230321CC
:1017C400C6F8D0360020FFF7D3FF2846FFF7D0FF36
:1017D4007E237F220024C6F80C37C6F83C39194B07
:1017E4002946C3F81821184A2120C2F8044EC2F829
:1017F400084E02F54822C2F81041C3F82441C3F848
:101804002C4103F5FF1303F58053C3F8A042C6F837
:101814000457C6F80459C6F8005BFFF7A9FF202057
:10182400FFF7A6FF0B20FFF7A3FF0A20FFF7A0FF97
:1018340087F31188BFF36F8F2046F8BD0010005066
:1018440000400050002000500090035005232DE973
:10185400F041224D00AF2C78DFF884800134B4FBD2
:10186400F3F303EB8303E41A0DF0AAFD1D4A1E4EA5
:101874001378E3B158F82430C01A072817D83378FE
:101884008BB96C4688B06A46184951611849916110
:10189400032142F8101F4FF4C451164800F096FB80
:1018A4000123A54633700020BD46BDE8F081002128
:1018B4004FF050233170D3F8140138B1C3F8141128
:1018C400D3F814312C700CB9012313702C780DF05B
:1018D40077FD48F824000120E6E700BF061D00203C
:1018E4007C120020051D0020041D0020211A010087
:1018F4004E1A0100AC11010048B1054B054A1B68A2
:10190400B3FBF2F35843044B43F001031847704709
:101914001403002040420F0040120100062807D1A2
:101924000122044BC3F80025BFF34F8F20BFFDE70E
:10193400704700BF00400050F0B583B000AF381DC1
:1019440008F086F8284B98424BD107F085FC041E1A
:1019540015DA387908F082F86D4688B06A46234B68
:101964005361234BC2E90634042342F8103F002399
:101974004FF401511F4800F029FBAD462DE040F61D
:1019840007031D4D7C71AE68FB8074687B6814B9D5
:101994006FF05704E0E708212846184AA047041EC0
:1019A400DADB3369002BF3D001220821284698475B
:1019B400041ED1DB01233D79114AAB40C2F8043542
:1019C4007879FE790DF0F1FC0E4B45F00045B60038
:1019D400C0F880509D51002CBED120460C37BD4626
:1019E400F0BD6FF01204B7E70000AD0B6A1A0100F6
:1019F400961A0100B4110100380E0100511A0000BA
:101A04000070015080A1025038B5049CC4F307252E
:101A1400284607F09BFA00210A4BA20B02F0FC02B5
:101A2400C0F8801099500123E4B2074AA340284625
:101A3400C2F8083507F02EFC2046BDE8384008F00F
:101A44000DB800BF80A0025000700150F7B51446D5
:101A540083681B690BB100229847C4F307263046FC
:101A640007F07CFA054630460DF09FFC0027104B2A
:101A7400220E9200C0F880709F50304607F066FA3C
:101A8400A20B0C4B02F0FC021344E2B242F00042FF
:101A94001A60094BC0F8802005F1320200933046E9
:101AA4003B46019452000DF089FC03B0F0BD00BF29
:101AB40080A1025080A002500D1A000007F074BEED
:101AC4002DE9F047044607464FF00109DFF850803E
:101AD40014B93846BDE8F08794FAA4F5B5FA85F54B
:101AE40009FA05F32E0108EB05156FEA030A24EA47
:101AF40003042B7B002BEBD058F806301B694BB941
:101B04004644736804222846196807EA0A0700F065
:101B140049FADDE7284698470028D9D1F0E700BF05
:101B2400C411010030B5002289B00F490F480EF0EE
:101B34005AFF002200230024CDE906230E230C4D76
:101B4400CDE903344FF440722846CDE90144094BF2
:101B54000949009409F090FC084928460EF065FCF8
:101B6400204609B030BD00BF851B0000480A002094
:101B7400C0050020551E000038240020AE1A0100C4
:101B8400014809F007BE00BF200500202DE9F047F9
:101B940080461F480F460BF041FE0646002830D011
:101BA40000252846BDE8F087237B73B12368DB68F2
:101BB4000BB12046984723681B69D3B96368042294
:101BC4002046196800F0EEF9013610344C45EBD389
:101BD400B8F1000FE5D0002DE2D02846FFF770FFE2
:101BE4000546002FF7D000214FF4A4700AF05AFAEA
:101BF400F1E7204698470028E0D00AFA06F31D438F
:101C0400E2E705464FF0010A024CDFF80C90DDE7ED
:101C1400A0120020C4110100D4110100014B53F89B
:101C2400200070475C12010008B5034608462BB13A
:101C3400044A136000F03CFC002008BD6FF015005E
:101C4400FBE700BFC001002010B5044C237813B992
:101C5400034809F09FFD0123237010BD071D0020D8
:101C64002005002010B5044606480BF0D7FD3CB112
:101C7400054BD3E8EF1F0139C3E8E21F002AF8D16E
:101C840010BD00BF981200209C12002000200146C5
:101C9400034BD3E8EF0FC3E8E21F002AF9D17047E2
:101CA4009812002070B5FFF7F1FF0546074C084E67
:101CB400B44200D370BD63685B792BB123685B6861
:101CC40013B12946204698471034F1E7C4110100A6
:101CD400D411010010B5044C044920460BF035FC26
:101CE400034B1C6010BD00BF4C04002048120100CF
:101CF4009012002008B50023064A4FF400411370E7
:101D0400054A06481360FFF78FFFBDE80840FFF758
:101D1400E1BF00BF081D0020981200201DD800005C
:101D240001460022002301480BF030BC4C04002083
:101D340001480BF0C9BC00BF4C040020024B014613
:101D440018680BF011BD00BF9012002001480BF081
:101D54003FBD00BF4C04002070B5264B1878002806
:101D640047D0FFF7E5FF054670B1234BD3E8EF1FDB
:101D74000139C3E8E21F002AF8D1204C204EB442B6
:101D84002DD32846FFF7DAFF1E4B1F4C1B68002B90
:101D940019DD0EF000FE4FF47A72A0FB020302FB81
:101DA4000131C30B43EA4143D4E900209B1A40F2BA
:101DB400E9324FEAD13161EB0001934271F1000144
:101DC40001D3FFF76FFFD4E9003213F57A7342F1C0
:101DD4000002C4E90032BDE87040FFF7B7BF636892
:101DE4005B7923B12368294620461B689847103441
:101DF400C5E770BD071D00209C120020C41101001E
:101E0400D411010098120020400A002070B50D4D35
:101E1400297861B90120FFF7B9FE0B4C0B4EB4428F
:101E240006D3FFF799FF0028FBD101232B7070BD67
:101E340063685B791BB1236820469B68984710341C
:101E4400EDE700BF081D0020C4110100D4110100FA
:101E540000212DE9F0470846FFF798FE044648B3F1
:101E640040F267684FF000090AF036F91A4B18601F
:101E740030B11A4B1B68092B02DD194809F08AFCA2
:101E84000025184FDFF858A044B12046FFF718FE8C
:101E9400044618B94FF0FF384FF0FF39FFF75CFFE5
:101EA400064628B9B5B942464B46504609F098FC57
:101EB4003546E9E74FF0FF384FF0FF39D4E72B6898
:101EC4009B691BB100222846114698471035BD4234
:101ED400F5D3E8E7044DFAE7941200209C120020A1
:101EE40020050020D4110100C411010013B51848C5
:101EF4000BF094FC174B1B787BB14FF02003EFF3EE
:101F0400118483F31288BFF36F8FFFF725FF84F3E7
:101F14001188BFF36F8F02B010BD0F4B1B68002BED
:101F2400F9D050B9002200230C48CDE900234FF426
:101F3400004200230AF00EFBEDE70A28EBD1074824
:101F44000EF05DFD064802B0BDE8104009F022BC69
:101F54009C120020081D002094120020480A002032
:101F64002005002010B5064B04461B6898472146FF
:101F7400A06004480BF088FBBDE81040FFF7B6BF33
:101F8400C00100204C040020044A054B9B1AB1EB0D
:101F9400D30F34BF52F8310000207047C410010041
:101FA400C4110100084B10B4C31A44681B11013357
:101FB400237143689A7101224368196043685A7116
:101FC40010BCFFF741BE00BFC41101002DE9F04F62
:101FD400C1F3CB448FB0C1F349260D4690469946D0
:101FE40005901734002E3CD04FF0040B4FF00A0A32
:101FF400002209AF31460BAB4046CDF808B001973B
:10200400CDF800A0CDE90B220D920796FEF7C8FC8F
:10201400C0F30903181920F0070080081E4663F373
:1020240052250693FFF77CFE044678B10022069BF6
:1020340010300B900C930D924046CDE9017B0C4A75
:102044000799CDF800A00BABFEF7AAFC66F3522566
:102054004B462A46204605990FB0BDE8F04F0BF0D9
:102064000FBC24F007008008FFF75AFE0446EDE792
:1020740059D800002DE9F04F87B00446DDE9105A25
:10208400DDE912690F4693469846B6B310213346EC
:1020940052460020CDF80090CDF81490FEF7ACFA2B
:1020A4000146174B04F007040BF0070BE40003EAA6
:1020B400412305F1170044EA8B141C430844114BD7
:1020C40020F0070003EAC54380081C430391FFF78F
:1020D40027FE054640B13EB1334652460399CDF83A
:1020E40000901030FEF788FA4346224639462846C7
:1020F40007B0BDE8F04F0BF0C3BB3146D1E700BFDA
:1021040000FE07000000F87F0EB403B503AB53F8DC
:10211400042B0146044801930BF0D9FB02B05DF88F
:1021240004EB03B0704700BFFBD80000CA0605D417
:102134008B064CBF02490349FFF7E6BF704700BF57
:10214400C7380100C63801002DE9F04F89B09B461D
:10215400DDE915769DF8483004460493DDE91393D0
:102164000593049B0D460692002B00F0878006F031
:10217400080307930BF06CFB06F0020A02460028E2
:102184004BD020468549FFF7BFFF8046BAF1000FC8
:1021940008D016F0440F42D12A4620468049FFF762
:1021A400B3FF804406F001035BB17E4B049A2046E2
:1021B40053F822207C4B7D49002A08BF1A46FFF7BA
:1021C400A3FF06F00803002B55D0794B049A204650
:1021D40053F822207749FFF797FF0546069B2BB15A
:1021E4001A4620467449FFF78FFF0544BBF1000FE0
:1021F40005D05A4620467149FFF786FF05444544F9
:10220400B9F1000F49D1002F4FD1F30700F1C0807D
:1022140031462046FFF78AFFB4E08046B6E7684BB4
:1022240018680028BDD0674B4FF47A7E1B684FF4C2
:102234006162B5FBF3F5B5FBF0F300FB13550EFB40
:1022440005F5B3FBF2FAB5FBF0FC3C2102FB1A32B4
:1022540000FB1C55B2FBF1F30EFB05F5B5FBF0F5E5
:1022640001FB132220460092CDE901C5524656498E
:10227400FFF74AFF95E706F00805AFE7BBF1010F4A
:1022840006D1B9F1000F64D1002F7BD000250CE0FA
:10229400B9F1000FF8D04D485CE04D484B4622465A
:1022A4004C490AF01CFC002F68D0DFF82C91DFF8B1
:1022B4002CA1102F31462046B8464FF0000B28BF02
:1022C4004FF01008FFF732FF5D4545DC059B514692
:1022D40020461A78FFF718FF4FF0010B1BF0070F89
:1022E40003D149462046FFF70FFFD8453BD9059B4C
:1022F4005146204613F80B20FFF706FF0BF1010BA4
:10230400BBF1100FEAD14FF0000B20463449FFF720
:10231400FBFE5A46059B20469A5CA2F120015F29E8
:1023240028BF2E222F49FFF7EFFE0BF1010BBBF163
:10233400100F1DD01BF0070F03D149462046FFF7AD
:10234400E3FED8455A46E5D849462046FFF7DCFE69
:10235400EBE71F48049DA1E749462046FFF7D4FE5A
:102364000BF1010BB0E720461F49FFF7CDFEC5E78F
:10237400059BB7EB0807434405939AD1049B002BB4
:102384007FF443AF204609B0BDE8F04F0BF0A6BA86
:102394002046054A0549FFF7B7FE39E7C81A010088
:1023A400CC1A01006C120100C31A01008628010036
:1023B40080120100F11A0100F71A0100FB1A010052
:1023C400A8120020A4120020D51A010029D9000067
:1023D400FBD80000D3D8000092380100001B010094
:1023E400061B0100081B0100903801002DE9F04193
:1023F4000F884B6805460C4690468E6886B0C7F336
:1024040082175BB1134A9B1A43F3CF0100291FDBE8
:102414002078C0F3C200FFF7B7FD0346214651F808
:10242400102B6088C2F34922002A01EB020408BF82
:102434000021C0F3CB00CDE90308CDE9011400224B
:10244400314628460097FFF77FFE06B0BDE8F081CD
:102454000023E3E7C410010042F20F7373B58B420B
:1024640028BF0B4605680446052168460D4A0AF054
:10247400B0FB0646636828460B225B680A490BF0EA
:1024840019FA63683246694628465B680BF012FA0B
:1024940063681B2228465B6804490BF00BFA02B000
:1024A40070BD00BF38300100271B01000B1B010069
:1024B40000210123064A904206D8064A01B90123A5
:1024C4001360054B18607047012140085B00F2E778
:1024D40040420F00A4120020A8120020014B00204B
:1024E40019607047C01200200122024B02481A7082
:1024F4000BF0F4B90A1D0020B01201000148FFF7E7
:10250400ABBF00BFB012010010B5064B0C461868F3
:10251400FFF784FB2146BDE8104003460F22024822
:10252400184700BFC0120020B0120100F8B50D46D4
:102534000446064F4618B44201D12846F8BD14F8A3
:10254400011BBB680148DB699847F4E7F00D010003
:102554002DE9F7430F4606460821C06A0BF081FABD
:1025640080463C68DFF84890241A3C6004EA090578
:10257400AC4203D8002003B0BDE8F08308236A46C8
:10258400214630460BF0DDF90028F4D16946304687
:102594000BF071FA40B1BDF80230BDF8042005EA31
:1025A400090513441D443C60A4EB0804E0E700BFA4
:1025B4000000FFFF2DE9F04F89B0044600AF00F1A1
:1025C400140840460DF047FFA06A8368DB6898470B
:1025D400E062B0B96C4688B06A46974B5361974B3A
:1025E4004FF4C25193610323954842F8103F0BF016
:1025F40035FA6FF01505A54628462437BD46BDE8D3
:10260400F08FA06A8368DB6898470368013B1F2B3F
:1026140004D96C4688B06A468A4BDFE7A06A216811
:1026240007F114020CF0FBFB20B16C4688B06A463B
:10263400854BD3E7A5892DB1BB69B5FBF3F203FB49
:10264400125525B16C4688B06A46804BC6E7E389CB
:10265400012B04D86C4688B06A467D4BBEE7E36A1A
:102664003D6093F804A04FF0FF334FF0FF32404633
:1026740008F0A6FF0821E06A0BF0F3F9A946064624
:10268400E3891FFA85FB5B4508D8E3894B4523D1D1
:10269400404609F00FF86FF02C05ADE7A1892B0433
:1026A400891B13FA81F152460823204639600BF046
:1026B4008DF978B1394620460BF051F909F1010939
:1026C40008235246204639681FFA89F90BF07EF92F
:1026D4000028DAD00135D3E75B450BD139680823EC
:1026E40052462046891B0BF071F918B93946204629
:1026F4000BF035F939462046FFF72AFF054618B195
:10270400404608F0D7FF77E73B684FEA13494FEAA2
:1027140009496360C4F80890D4E9011399420FD3BE
:10272400082320463A1D0BF00CF905460028E7D192
:102734003B1D13F8012B924549D10135082DF8D1E1
:10274400636839461B0C1B0420463B600BF007F9F9
:1027540052462046A38939680BF038F9051ECFDBB1
:10276400636800F08B804FF6FF7A06EB0309A389B8
:102774001FFA89F29B1B9A42C7F8009041D36D4619
:1027840088B06A46334B4FF4C6515361324B2C48E0
:102794009361032342F8103F0BF060F92046AD46E5
:1027A40061680BF038F905460028A9D163682B4A03
:1027B400A18913400B44A3EB4603636013402046F6
:1027C400A3600BF03AFA0546002D73D098E7204633
:1027D400391D0BF050F9626810B9921B62609BE7D7
:1027E4003D89F988E06AC4F8089029440BF039F966
:1027F40048449042A060F0D1002DEED06FF01C054B
:10280400A5E008234946204607F10C020BF099F88D
:10281400054600287FF474AF204607F10C010BF045
:102824002AF930B1BB89534503D13B8A002B00F010
:102834009480B1449BE700BF851B0100D51C0100B7
:102844003C110100AB1B0100CC1B0100E81B010083
:10285400001C01006D1C0100C91C01000000FFFFE9
:10286400524620465B1A0BF0B1F8051EFFF648AF3E
:1028740008D0E26AA36812681344A360D4E9013162
:102884008B42EDD86168A38901EB46029A429BD141
:10289400DFF80091A36801EA0902934294D020462C
:1028A4000BF0B9F8054600287FF42AAF636803EA01
:1028B4000903A360A389A288A3EB46039A4242D0EA
:1028C400404608F0F7FE0123E8468AB023746D46BB
:1028D400E289A3894FF005092E462F49DFF8BCA0F1
:1028E4006961C5E906A22B6246F8109F32464FF48F
:1028F40023512B480BF0B2F8C5466368AD46294A0C
:102904004FF42351C5E9052A1A0C9BB2EA612B62E4
:1029140032462348C5F810900BF0A0F8C546A368CA
:10292400AD46214AC5F81090C5E9052A1A0C9BB298
:10293400EA612B6232464FF4235119480BF08EF8AA
:102944000025C54658E620460BF062F90546404688
:1029540008F0B0FE002DB6D04EE66D4688B06A464B
:10296400124B4FF4C6515361114B0D48936103232D
:1029740042F8103F0BF072F8636839461B0C20468E
:102984001B04AD463B600AF0EAFF204639680BF0B1
:1029940042F818E70000FFFF271C0100D51C0100C6
:1029A4003C110100421C0100581C0100981C01004C
:1029B400C91C01002DE9F04F89B01D46037C00AF0E
:1029C400044691467960B3B96C4688B06A46694B4F
:1029D4004FF4C2515361684B68489361032342F832
:1029E400103F0BF03BF86FF00C06A5463046243739
:1029F400BD46BDE8F08FC26A082110460BF031F8DD
:102A04008246294610460BF02CF8A3898046A3EB96
:102A14008A03AB42C0F0AB801DB1B9F1000F00F0E6
:102A2400A6806368FB60204607F1100207F10C01E1
:102A3400D7F80CB00BF057F806460028D6D13B8ADD
:102A44007A68934205D06268FB689A42EBD1DDB99B
:102A5400CCE7204607F110010BF00DF80028F2D066
:102A6400788ABB8A75B1AB420ED14FEA1B41090487
:102A740001442B464A4620460AF07EFF002803DC28
:102A84000646B3E7002BB1D0B8F1000F3ED104F1F4
:102A940014033B604FF0FF324FF0FF3304F1140096
:102AA40008F08EFDDFF8D8B0E3899E425CD0D4E90B
:102AB400012308EB03018A422CD37B83FF237A682A
:102AC400BB773A8307F11800BD830AF0BEFF2B469B
:102AD4004A46A16820460BF050F829468246E06A2F
:102AE4000AF0BFFFA2680244A260BAF1000F08D145
:102AF400204607F118010BF07AF8002814BF82462B
:102B0400AA46386808F0D6FD56466FE7D0441FFA47
:102B140088F8BCE70821E06A0AF0A3FF4FF6FF73C8
:102B24003B830023BB8313187B83A38902EA0B0234
:102B34001A44101A606007F118000AF086FF07F1C2
:102B4400180120460BF053F82046211D0AF007FF18
:102B54006368204603EA0B03A3600BF06EF8824619
:102B64000028CED101369FE76FF01B0AC9E76FF04A
:102B740015063BE76D1B0100BF1C01003C11010061
:102B84000000FFFF2DE9F04F85B01E46037C00AF27
:102B9400044688469146B7F838A0ABB96C4688B06D
:102BA4006A46304B30485361304B4FF4C251936105
:102BB400032342F8103F0AF051FF6FF00C00A546C2
:102BC4001437BD46BDE8F08F0821C06A0AF049FFFA
:102BD400A389A3EB4003B34240D30025D4F804B047
:102BE400C7F804B055455946D7F804B008D9636806
:102BF4005B451ED13B8943451BD06FF00100DFE7E5
:102C0400204607F10802391D0AF06DFF0028D7D1CC
:102C14003B89434507D1204607F108010AF02BFF01
:102C240008B10135ADB262687B689A42DAD159467F
:102C3400E0E7BB89002BE0D0AA45DED87889090CEF
:102C4400B3424FEA014128BF334601444A46204675
:102C54000AF077FE0028B3D1B889B1E76FF0150008
:102C6400AEE700BF6D1B01003C110100B11C010067
:102C740098B500AF98B96C4688B06A46154B1648AB
:102C84005361164B4FF4C2519361032342F8103F32
:102C94000BF0ABF86FF01500A546BD4698BD8368F0
:102CA40093B96C4688B06A460D4B0B4853610B4B85
:102CB4004FF4C2519361032342F8103F0BF095F88F
:102CC4006FF00400A546E8E71B680BB19847E4E7FA
:102CD4001846E2E7E61C010044110100AE1D0100A4
:102CE400FB1C0100B0B500AF08B101B19AB96C4644
:102CF40088B06A46164B17485361174B4FF4C251BC
:102D04009361032342F8103F0BF06FF86FF0150046
:102D1400A546BD46B0BD84680CB1E56895B96C465E
:102D240088B06A460D4B0B4853610B4B4FF4C251AC
:102D34009361032342F8103F0BF057F86FF004003F
:102D4400A546E6E741F8040BE3689847E1E700BFCE
:102D54001D1D010044110100901D0100FB1C010018
:102D6400B0B51346044600AF98B96C4688B06A46BD
:102D7400204B21485361214B4FF4C25193610323EB
:102D840042F8103F0BF031F86FF01500A546BD4630
:102D9400B0BD006890B96C4688B06A46184B1648B6
:102DA4005361164B4FF4C2519361032342F8103F11
:102DB4000BF01BF86FF00100A546E8E782680AB142
:102DC400956895B96C4688B06A460E4B0A485361BB
:102DD4000A4B4FF4C2519361032342F8103F0BF0A6
:102DE40004F86FF00400A546D1E70A466168A847D5
:102DF400CDE700BF4D1D0100441101007F1D0100FE
:102E0400621D0100FB1C010008B5042200210248D8
:102E14000BF097FD002008BD0000072030B50C46DC
:102E24000E4985B00291D0F8AC110546CDE90031C8
:102E340000F1E0014FF0FF33204607F013FF50B9D3
:102E4400012384F86430D5F8A83123B1204605B0B5
:102E5400BDE83040184705B030BD00BFE5DE0000D6
:102E640038B50C46114605460BF03CF8034638B914
:102E7400284604490BF036F803460020236038BD89
:102E84000120FBE7C83801002DE9F04F01238146FA
:102E94000569466885B005F55977D7E8EF2F002A0C
:102EA40003D1C7E8E13F0029F7D140F0B880B36807
:102EB400B26A043B2632B3EB420F4FEA420126BF0B
:102EC400B3FBF1F3B3FA83F300234FF0010428BFFB
:102ED400C3F12003013B9C4005F5E47800F09980A0
:102EE4001022082170689A4002EB44020430994091
:102EF4000932C5F86002063122F003020A44B16ABD
:102F040001FA03FC510001EB4C01C5F86412B16AEB
:102F1400994000EB4103C5F858320333134423F0BE
:102F24000303C5F854327368C5F85C42C5F85032DF
:102F34003C4B4046C5E9A963316800F01DFA0446DC
:102F440030BBD9F804A0D9F81090DAE9073409F5B0
:102F5400307B012B584608BF103C0DF0A7FB002323
:102F6400DAF8240030494FF4806201EB80210093A9
:102F74005846234608F058FD09F52C702B490DF0EE
:102F840067FBDAF8140083685C681CB96FF05704B7
:102F9400002137E04B46264ADAF81810A0470446C9
:102FA4000028F5D1DAF8140083681B69002BEDD0F2
:102FB4000122DAF81810984704460028E8D11D4B7E
:102FC4002846C5F8A8311C4BC5F8AC311B4B0393FC
:102FD400D5F810320293D5F80832CDE90083D5F83C
:102FE4006832B26AD5F8601300F08EF904460028FE
:102FF400CED105F1E00007F0E3FE0028C5F8680330
:103004000ADB022138460AF0A2FF204605B0BDE8DB
:10301400F08F6FF00B04BBE76FF01504B8E76FF0A7
:103024007704F2E73BDF00003827002021DF0000AF
:1030340015DF000009310000F3DF000083DF00002A
:103044002DE9F84306464FF001090569D0F80480DC
:1030540005F55977D7E8EF3F022B03D1C7E8E29F84
:10306400002AF7D149D1264805F140010BF018FC9C
:1030740020B16FF00F042046BDE8F883204805F125
:10308400B0010BF00DFC0028F3D12846D5F86013ED
:103094000AF0E0FF044670BB7168366948698368CA
:1030A4001B6933B3224689699847044618BB06F561
:1030B40030764946304608F0EFFC304605F5E476B4
:1030C40001F034FD3046D8F800100BF000F8044647
:1030D40088B90146E82230460BF033FC21464FF410
:1030E400E27228460BF02DFC214638460AF02FFFE9
:1030F400C1E76FF057040221F7E76FF07704BAE7EE
:10310400C838010013B5044640B100230122CDE9BB
:103114000032074BD0E9091207F058FDA36E1B6873
:1031240023B1E06E02B0BDE81040184702B010BDF4
:10313400C838010013B504460846216901F55971E0
:10314400D1E8AF1F022910D193B1A0B10121CDE97B
:1031540000311346D0E9091207F038FD074B9842B5
:1031640008BF6FF00B0002B010BD6FF00F00FAE75C
:103174006FF04C00F7E76FF00100F4E72EF8FFFF63
:103184002DE9F74388461546066906F55973D3E8D1
:10319400AF3F022B5FD1136823B96FF0150003B062
:1031A400BDE8F0831B78002BF7D0D6F86093B9F113
:1031B400000F33D106F5D8774FF0FF324FF0FF33CD
:1031C400384608F0FDF930462A6801A9FFF748FEA1
:1031D400019C1CB938460AF0B8FEDEE705F1080385
:1031E400A3666B6984F86490E366E46360B138466F
:1031F4000AF0ABFE21463046236E2A68FFF70EFE26
:103204000020C8F80040CAE72022296804F14000E1
:103214000BF022FB38460AF098FEF1E730460F49DE
:103224000AF060FE04460028B7D005F1080383665F
:103234006B69C063C366002380F864302022296868
:1032440040300BF009FB22460121304600F03EF8E5
:103254000028D5D0A1E76FF00F00A0E7C83801001F
:103264002DE9F04F05460E4690460027D0F8B0A051
:1032740085B0AAF5AE74214630460BF011FBE0B9D7
:10328400114BA4F1400B0293DAF810303246CDE929
:10329400008329464FF0FF335846AAF5CE7907F04C
:1032A400E1FC60B97023012203FB079383F86420D7
:1032B400DAF80C300BB158469847703417B105B0A2
:1032C400BDE8F08F0127D6E755E000001FB514468E
:1032D40090B18AB1012912D10A4B00F1E0010293A5
:1032E400D0F8AC31403201934FF0FF3320460093C5
:1032F40007F0B8FC04B010BD6FF01500FAE7002029
:10330400F8E700BF55E000002DE9F04387B00E4612
:10331400DDE90E811446DDE910251F4630B329B3DB
:10332400DFF850C000F1E009002D08BF65469EB9E2
:10333400CDE9034400F5CE74204605960CF08BFFCE
:1033440003ABCDE900432A463B464146484607F0D5
:103354005DFD07B0BDE8F083002241460E92484669
:103364002A4607B0BDE8F04307F07ABE6FF01500B7
:10337400EFE700BF65320000F0B50E46044689B0A1
:1033840000286FD001230246C3630023D0F89810AD
:10339400364F403040F80C7C42F8301FCDE9013301
:1033A4004FF0FF330093C36D0CF013FA304A06ABB1
:1033B40092E8030083E80300184607F027FB05465C
:1033C400D8B904F1340007F001FB0546A8B9394621
:1033D400284805AA0CF0CFF9054670B9059B9A68F0
:1033E40072B10C33D4F89400C4F8A0300AF061FE32
:1033F400C4F8D40030B96FF00B05284609B0F0BD0D
:103404000346EFE7D4F894000AF053FEC4F8D8005A
:103414000028F0D0D4F88C30D4F8A010C4F8A83028
:103424000423C4F8AC30C4F8C4300223A362124BA2
:10343400B4F89420D4F8D470C4F8B810C4F8D010F8
:10344400D4F89010236204F1A403A4F8B020C4F8C3
:10345400A470C4F8C010A4F8C820C4F8BC00A661C5
:10346400E362CAE76FF01505C7E700BFD91D010085
:10347400F0110100E31D0100EC12010070B5114BC5
:103484000D461C68DCB1104B196800238B4202DB2B
:103494006FF0010070BD224612F8106B864202D014
:1034A40014460133F2E7E06810B96FF01200F1E757
:1034B4000CF0E7FE0028F8D000202C60EAE76FF05B
:1034C4000C00E7E7080200201013010070B588B073
:1034D40005460C46C0B269461646FFF7CFFF0028E2
:1034E4001BDB0098C8B14368226802938368019586
:1034F400CDE903360023CDE906230593C5680AF018
:1035040016FE6DB12846084901AA0BF08CFC0798F9
:1035140008B9059B236008B070BD6FF01500FAE789
:103524006FF01200F7E700BF35E100002DE9F0412C
:103534000F4B05461C680E461746ACB14FF0FF32E0
:103544004FF0FF330B4808F03BF863683246D3F87A
:10355400088029463B462046C0470446054808F0F3
:10356400A9F82046BDE8F0816FF00104F9E700BF37
:10357400C4120020E004002000230360044B5A68B6
:1035840012B9C3E90000704710605860704700BF6B
:10359400C8120020014B1860704700BFC4120020FD
:1035A400002330B585B00546CDE9023301904FF0D4
:1035B400FF334FF0FF320B4808F002F80A4B1C6847
:1035C4004CB9284600F0C4F80446064808F072F8DE
:1035D400204605B030BD636820461B6801A99847A2
:1035E4002468EDE7E0040020C81200200022024B0A
:1035F400C3E90022704700BFC81200200022024B1A
:10360400C3E90022FFF7F2BFD01200202DE9F743EF
:1036140007460C4609B100230B6000261E4DDFF857
:103624007C904D450FD31E4B1D6885B355F8148C03
:103634003846414601AA143D0AF09FFD10B3D6B99D
:1036440014BB2E461EE0D5F800803846414601AA38
:103654000AF093FD50B116B954B92E4606E0002283
:10366400404631680AF089FD0028F5D11435D8E7C1
:10367400019B2360F1E70022404631680AF07DFD9A
:103684000028DDD16D69D0E7019B2360D9E730467E
:1036940003B0BDE8F08300BFD4110100E8110100BC
:1036A400D01200202DE9F04784B002AFD7F828905B
:1036B40004460D46164698467860B9F1000F07D0C7
:1036C400D9F8001041BBD9F804A0BAF1000F2AD1EF
:1036D4002046391DFFF79AFF18B3D0F808904346E7
:1036E400324629467868C847D8B16D468AB002AADE
:1036F400134B10625361134BC2E9063440F2013399
:103704009384114B42F8103F00234FF431510F487A
:10371400FEF75CFCAD4604E03A1D0AF02EFD0028DD
:10372400D1D1002007E0D9F8083032460093294669
:1037340043467868D0470837BD46BDE8F08700BFE8
:10374400EB1D0100141E010005000001A41101007D
:10375400F8B506460025174C174FBC4208D3174B43
:103764001C682CB3143CB6B9E368E3B96469F8E7A0
:103774002EB9E3685BB9284605461434EDE7002208
:10378400314620680AF0F9FC0028F2D1F3E79847A3
:10379400002DF0D1F0E70022314620680AF0EDFC5C
:1037A4000028E1D1E2E79847002D08BF0546DDE790
:1037B4002846F8BDD4110100E8110100D012002000
:1037C40038B50C4D4FF0FF334FF0FF320A4807F085
:1037D400F7FE2B783BB9FFF711FF00F06DF80446B4
:1037E40010B901232B700024034807F063FF20461F
:1037F40038BD00BF0B1D0020E00400202DE9F04778
:1038040080468946048FDFF8ACA0013498B0A4B296
:1038140000F10806651EADB2B5F5004F47D04A2346
:10382400294605AA30460AF0D9FA04F57F543F34F4
:10383400A4B207462146012330460DF10B020AF0DB
:10384400CDFA002F014603DC002803DC2C46E1E717
:10385400002816DCB8F83830AB4209D142466B1E5A
:1038640022F8383F4FF4004102233046FFF7A2F814
:10387400294630460AF0AEFA214630460AF0AAFA42
:10388400E4E707F160030DEB03070023524607F852
:103894004C3C05A8CDF8009003AB0396ADF810405E
:1038A400FFF700FF0028D1D018B0BDE8F087002052
:1038B400FAE700BFEFE100007FB50125694628461D
:1038C4000195FFF7DBFD0446002834D1284602AAFF
:1038D40001A9FFF7FBFD10F1130F04462BD038B1FB
:1038E4000C3405D0404080F311884FF0040002DF0F
:1038F4000399B1F5803F23D200231846009A9468B7
:10390400084484421AD30133082BF9D10E4DA982FD
:10391400EB8253682846AB60D368EB630AF0FFFC84
:10392400044640B9094E28466E60FFF725FE284636
:103934006E60FFF72FFE204604B070BD9BB2E5E732
:103944006FF02004F7E700BFD8120020F001002038
:103954002DE9F84305464FF02003EFF3118683F376
:103964001288BFF36F8F4FF00C090D4B0D4F1C687D
:10397400DFF834802CB986F31188BFF36F8FBDE86C
:10398400F883D4E90123002D18BF13462BB198F80E
:10399400142009FB02F2B85C98472468EAE700BFE8
:1039A4003013002024130020EC1A0020012270B5EB
:1039B400164B1C7D04F01F039A40D043144B61093D
:1039C40003EB8103D3E8EF1F01EA0005C3E8E65FD8
:1039D400002EF7D10A4213D00E4B0F4D8BB10C239E
:1039E4006343EA185178E85C09F0FDFE0020FFF714
:1039F400AFFF0C235C4300232A192B51C2E9013386
:103A040070BD83F31188BFF36F8FEFE7EC1A0020CA
:103A140038130020EBD70000241300202DE9F041D7
:103A2400324B07461D7D4FF02003EFF3118883F3DB
:103A34001288BFF36F8F0C246C432D4B2D4E195DF0
:103A44001A19002947D007CA06EB040C8CE80700B2
:103A540000221A5588F31188BFF36F8F0C236B4330
:103A6400F05CF218A8B37B1C10D04FF40040002186
:103A7400D2F808C0204C0023ECFB00411F4A20462A
:103A8400FCF766FB0121381A0CF065FF08F04CFACC
:103A94000120FFF75DFF1A4B6A0903EB8203012241
:103AA40005F01F018A40D3E8EF0F1043C3E8E10F8C
:103AB4000029F8D1134B3BB10C2303FB05F0331859
:103AC4005978305CFDF72AFFFFF770FF08F040FAE1
:103AD4000120BDE8F0810146284600F015F80028D1
:103AE400B8D007C8344484E80700B3E7EC1A0020D0
:103AF40018130020241300203F420F0040420F00FF
:103B040038130020211900002DE9F04F85B00E462E
:103B140003A900F043F84FF4004704464FF0000BAC
:103B24001B4B039DD3F800A0431E1BB203EB4303BE
:103B3400DFF8608005EB830524B9A146484605B04B
:103B4400BDE8F08FC446594668680023E0FB07C10E
:103B5400114A6046FCF7FCFAC44659460190A8682D
:103B64000023E0FB07C10C4A6046FCF7F1FABAF106
:103B7400FF3FA94601D0824505D9731CDED0019BC5
:103B84001844B042DAD9013CA4B20C3DD4E700BFDA
:103B9400040200203F420F0040420F0008B9024BCC
:103BA4000B600020704700BF101301002DE9F04F97
:103BB400002703689DB002934368DFF8BCA1039318
:103BC4008368DDE902460493C36805930369DDE96C
:103BD40004BE0693436907938369DDE9062C0893C1
:103BE400C36998460993089B0093CD590CAB2DBA31
:103BF4005AF8049BDD514FEAF223A94483EAB21335
:103C0400009D83EA72634B4425EA020502EA0C092B
:103C140085EA09052B44434486EA0B054FEA7438C8
:103C240088EAB408254006EA0B0985EA090588EA0A
:103C3400B4580437A844402F03EB0E054344DE4632
:103C4400DDF8008040F088804FF0100A4B490A915B
:103C540051460AF1010A0DF1700E0AF00F070EEB3E
:103C6400870757F8407C01F00F094FEAB7480197DE
:103C740088EAF71801F10E0707F00F070EEB870724
:103C840057F8407C09314FEAF74E8EEA774ECDF86B
:103C94002CE001F00F010DF1700E0EEB81010EEB23
:103CA400890959F840EC51F8401CBAF1400F7144AD
:103CB400DDF804E088EADE08DDF82CE041448EEA11
:103CC400972E714405EA02084FEAF52E2CEA0507FF
:103CD40087EA08078EEAB51EDDF828808EEA756E3D
:103CE400774458F804EF49F8401C77440F4400998E
:103CF4004FEA733E394484EA0607CDF828808EEAF9
:103D0400B30E07EA030704EA06088EEAB35E87EAFD
:103D1400080777440F4401EB0B0ECDF800C0B346FF
:103D240022D102993944016003991944049B4160EA
:103D340023448360059B3344C360069B734403613F
:103D4400079B2B444361089B13448361099B634491
:103D5400C3611DB0BDE8F08FB346CDF800C0264660
:103D640094461C462A4640E7944626462A461C4664
:103D740075463B466CE700BF441301008013010005
:103D840010B50446C8B1702200210AF0F6FA0B4BB4
:103D94000B4A0C49C4E900230B4B0C48C4E9021339
:103DA4000B4BC4E9040301200A4BA36103F17453D0
:103DB400A3F52303A3F69243E36110BD85AE67BB6D
:103DC40067E6096A72F36E3C3AF54FA57F520E51CD
:103DD4008C68059BABD9831F014808F021BD00BF47
:103DE4004414010038B5044618B90F4B0F485B68FA
:103DF40098476168B1F5683F0FD0B1F5680F0CD0F2
:103E04000B4DA94209D011F4686107D02146094835
:103E14000CF0DCFA00232360656038BD14222068AE
:103E24000AF08FFDF8E700BFD40300203D1E010017
:103E34002C5F5CA93C18002008B560B34368B3F557
:103E4400683F0ED0B3F5680F18D0144A934220D0BF
:103E540000684FF0FF324FF0FF3307F0B1FB58B169
:103E640015E001220368D3E8EF1F002903D1C3E85A
:103E7400E02F0028F7D10AD1002008BD0368084AC2
:103E84001B7803F5807352F82330002BF4D00548D7
:103E9400F3E70548F1E76FF4E040EEE72C5F5CA937
:103EA40000000350E98FFFFFEA8FFFFF08B520B33E
:103EB4004368B3F5683F09D0B3F5680F13D0114ACE
:103EC40093421DD0006807F0F5FB14E0002203685C
:103ED400D3E8EF1F012903D1C3E8E02F0028F7D16D
:103EE40009D0094808BD00210368084A1B7803F576
:103EF400807342F823100020F4E76FF4E040F1E708
:103F04000348EFE72C5F5CA9E98FFFFF0000035033
:103F1400EA8FFFFF10B5044618B91D4B1D485B68B6
:103F240098476368B3F5683F2FD0B3F5680F2CD07A
:103F3400194A934219D1236803BB4FF0FF324FF063
:103F4400FF332146154807F039FA08B923681BB92D
:103F54000F4B13485B6898471422002120680AF02D
:103F6400F0FC4FF46863636008E0B3F5683F0DD874
:103F74003A2B03D040F6BA629342DED120680CF0AB
:103F84006AFA636843F03A03636010BD054AF3E7D5
:103F9400D40300203D1E01002C5F5CA93C180020C6
:103FA400631E01003A00003A08B506494023142272
:103FB40005480CF0FDF9BDE808400449044808F040
:103FC400A1BC00BF3C1300203C1800204C1401008D
:103FD40060140100014910220A60704710ED00E0EE
:103FE40072B6404080F31188BFF36F8F01B5FDF7BF
:103FF4002DFC002802D0BFF34F8F30BFBDE8014035
:1040040062B6BFF36F8F704772B6494081F311886F
:1040140001B5FDF71BFC002802D0BFF34F8F20BF72
:10402400BDE8014080F3118862B670472DE9F84F6E
:1040340082460C4600AF002952D0D1E900126E46E8
:104044008AB0A3686D464FF0060BA8462848DFF8EF
:10405400A490C5E90823C5E90691686148F810BF32
:10406400002342464FF441512348FDF7AFFFD4E902
:104074000312B5466369AD462048C5E90712C5E990
:1040840005096B62C5F810B0002342464FF4415154
:104094001948FDF79BFFB54688B0E3696D464FF0BC
:1040A400040BA846164AEB61C5E9052948F810BF78
:1040B400002342464FF401510F48FDF787FFB546F0
:1040C400A369AD460F4AEB61C5E90529C5F810B0EF
:1040D400002342464FF401510748FDF777FFB546E8
:1040E4002146504606F0D2FFBD46BDE8F88F00BF1A
:1040F400901E01003B1F01008C110100C31E010032
:10410400F61E0100091F010040B2002807DB01234D
:104114004109034A00F01F00834042F821307047F0
:1041240000E100E040B200280CDB0122064943090B
:1041340000F01F008240203341F82320BFF34F8F4B
:10414400BFF36F8F704700BF00E100E0054B4209E9
:1041540053F82220012300F01F0003FA00F010405E
:10416400704700BF00E100E040B2002801F1010106
:10417400ACBF00F16040064B4FEA4111C9B2ABBF7E
:1041840000F5614000F00F0080F8001319547047E7
:1041940014ED00E030BFFFF7FDBF00BF0B4A08B5C8
:1041A4000B4B22F07F029A60BFF34F8FBFF36F8FE8
:1041B400D3F8882022F47002C3F8882007F028F886
:1041C40008F002F800F02CFC07F062F80000000090
:1041D40000ED00E0094A0A49936809689867D967BD
:1041E40008494B6843F080534B60002383F31188E4
:1041F400BFF36F8F9368D86F704700BFEC1A00202D
:104204004017010000ED00E013498A684FF03000C8
:104214001044EFF3098C80E8F01F202080F312880B
:10422400BFF36F8F0D4F4FF00066CA698A603E601E
:10423400906F0023936780F3118802F1300090E8B7
:10424400F01F8CF3098802F1000004B50AF0CAFAE1
:10425400BDE8044070470000EC1A002004ED00E0C3
:104264001EF0040F0CBFEFF30880EFF3098081699F
:1042740011F8021C0229FFD001B50AF0A4FA01BD0D
:1042840042F8203C009B0B4942F81C3C019B21F066
:10429400010142F8183C029B42F8081C42F8143C05
:1042A4004FF0807342F8043C0023203A0265836790
:1042B400704700BFF1CB0000084B9860836E83F316
:1042C4000B88104681F30988002163B681F31188B5
:1042D400BFF36F8F0022002308F088FCEC1A002043
:1042E40001B572B60B4A906900281EBF0021916186
:1042F4000CF0A2F862B6EFF30580A0F110004FEACB
:10430400C0000549014409C99847BDE80140034973
:1043140008470000EC1A0020680E01002543000045
:10432400044B9968D869884203D003494FF08052FE
:104334000A607047EC1A002004ED00E02DE9F84310
:10434400E84600AF88B006460D466A464FF00309BA
:104354004D4B4E4C536194614FF4C2514C4842F85A
:10436400109F0AF043FA4B4BC5469B6ADB060CD5FB
:1043740088B06A46484B4FF4C251C2E905344448F8
:1043840042F8109F0AF032FAC546424B9B6A18075E
:104394000ED5E84688B06A46404B4FF4C251C2E994
:1043A400053403233A4842F8103F0AF01FFAC54681
:1043B400DFF8E090D9F8283099072AD5E84688B084
:1043C4006A46374B4FF4C251C2E9053403233048DF
:1043D40042F8103F0AF00AFAD9F83430D9F8282004
:1043E400C546120615D588B06A46D36104232D4903
:1043F4002748C2E905144FF4015142F8103F0AF06E
:10440400F5F9C5462EB1D9F8283023F08003C9F850
:104414002830204B9B6ADE070ED56E4688B06A466C
:10442400214B4FF4C251C2E905340323184842F822
:10443400103F0AF0DBF9B546164B9B6A98060ED579
:104444006E4688B06A46194B4FF4C251C2E905342E
:1044540003230F4842F8103F0AF0C8F9B54600207C
:104464000C4B9A6AD10658BF9A6A9A6A920642BF5E
:104474005A6A22F400525A629A6A42F0FF029A621D
:104484002870BD46BDE8F883441F0100572301008E
:104494008C11010000ED00E05E1F0100951F01007A
:1044A400AC1F0100C81F0100E21F0100052001002C
:1044B4002DE9F843E84600AF88B006460D466A4643
:1044C4004FF003094C4B4D4C53614FF4C25194616E
:1044D4004B4842F8109F0AF089F94A4BC5469B6A3B
:1044E400D9040CD588B06A46474B4FF4C251C2E98F
:1044F4000534434842F8109F0AF078F9C546414B09
:104504009B6A1A050ED5E84688B06A463F4B4FF4BD
:10451400C251C2E905340323394842F8103F0AF076
:1045240065F9C546DFF8DC90D9F828309B052AD513
:10453400E84688B06A46364B3148C2E9053403235D
:104544004FF4C25142F8103F0AF050F9D9F838300C
:10455400D9F82820C546100415D588B06A46D36119
:1045640004232C492648C2E905144FF4015142F8AA
:10457400103F0AF03BF9C5462EB1D9F8283023F490
:104584000043C9F828301F4B9B6A59050ED56E4667
:1045940088B06A46204B4FF4C251C2E90534032364
:1045A400174842F8103F0AF021F9B546154B9A6AAC
:1045B400D20518D56E4688B06A46184BC2E9053450
:1045C40003234FF4C2510E4842F8103F0AF00EF98B
:1045D400B54600200B4A936A43F47F4393622870E4
:1045E400BD46BDE8F8839B6A9B04F2D56E4688B04D
:1045F4006A460B4BE2E700BF382001004D2301005F
:104604008C11010000ED00E052200100951F010013
:1046140067200100842001009D200100BC200100CE
:1046240005200100F8B56D4600AF88B06A46032640
:104634004D4B4E4C536194614FF4C2514C4842F877
:10464400106F0AF0D3F84B4BAD469B6A9B010CD517
:1046540088B06A46484B4FF4C251C2E90534444815
:1046640042F8106F0AF0C2F8AD46424B9B6ADD0176
:104674000ED56D4688B06A46404B4FF4C251C2E92C
:10468400053403233A4842F8103F0AF0AFF8AD4628
:10469400384B9D6A15F480150FD06D4688B06A4674
:1046A400374B4FF4C251C2E905340323304842F872
:1046B400103F0AF09BF8AD4602252E4B9B6A180367
:1046C4000ED56E4688B06A462E4B4FF4C251C2E9ED
:1046D40005340323264842F8103F0AF087F8B5460C
:1046E400244B9B6A59030ED56E4688B06A46264B06
:1046F4004FF4C251C2E9053403231D4842F8103F68
:104704000AF074F8B5461B4B9B6A9A030ED56E46A5
:1047140088B06A461D4B4FF4C251C2E905340323E5
:10472400134842F8103F0AF061F8B546114B9B6AF2
:10473400DB030ED56E4688B06A46154B4FF4C25162
:10474400C2E9053403230A4842F8103F0AF04EF840
:10475400B546084A2846936A6FEA03436FEA13434F
:104764009362BD46F8BD00BFD8200100412301007B
:104774008C11010000ED00E0F42001000B21010088
:10478400292101005721010079210100A221010002
:10479400C02101002DE9F0478AB0854B0546D3F8C6
:1047A4000480002600AFC8F3080486F31188BFF321
:1047B4006F8F02F07F43B3F17F4F13D102F00C03EC
:1047C400082B1ED16D4688B06A467A4B4FF4C2510D
:1047D4005361794B79489361032342F8103F0AF0FF
:1047E40005F8AD46002635460023FB71E31E092B70
:1047F40000F2BF80DFE803F00AA5A8A1BDBDBDBDDE
:10480400BDAB10074CBF0D460126EDE7E84688B066
:104814006A464FF0030A6A4BDFF8A8915361C2F865
:1048240018904FF4C25142F810AF644809F0DEFF0B
:1048340000235F4CFB71E36AC5469A070DD588B027
:104844006A46614B4FF4C251C2E9053942F810AFD0
:104854005A4809F0CBFFC54689E0E36A002B03DA26
:1048640088B06A46594BEDE7E36A5B007FD588B0B0
:104874006A46574B4FF4C251C2E905394F4842F8D2
:1048840010AF09F0B3FF6369AA6943F48073C546A6
:104894006361BFF34F8FBFF36F8F636932F8022CEC
:1048A40023F480736361BFF34F8FBFF36F8F4DF6B3
:1048B40002739A4207D0A36ADBB28BB30120F91DBD
:1048C400FFF73CFD3BE088B02B686A46D3610423C4
:1048D40040493A48C2E905194FF4015142F8103FE2
:1048E40009F084FFC5462C68FB79ABB92022294620
:1048F40007F108000AF01AF87B6A002E52D0C3F3BD
:10490400080222B96FEA53236FEA43237B622046ED
:1049140007F10801FFF78AFB2837BD46BDE8F08799
:10492400A36A13F47F4F04D00120F91DFFF7C0FDE3
:1049340005E0A36AB3F5803F19D3FFF773FE04467D
:10494400D2E70020F91DBBE70020F91DEEE76C4615
:1049540088B06A46204B4FF4C25153611F4B17482D
:104964009361032342F8103F09F040FFA546002459
:10497400BAE71B4A18F4F87FE8468AB0194B18BF07
:1049840013466A461849103C516118491462C2E939
:10499400061340F201339384154B4FF4315142F81E
:1049A400103F55E723F4FF7323F00103AEE700BF84
:1049B40000ED00E01D220100732301008C110100B1
:1049C4004C22010068230100672201008C220100AF
:1049D4009E220100C1220100E122010033230100D3
:1049E40004220100EF21010009230100202301001A
:1049F40005000001044B5A6942F010025A615A69D9
:104A040042F480625A61704700ED00E0EFF30880E1
:104A1400EFF3098101B57246FFF7BCFE01BD00BF8B
:104A2400002320210348C2180133452B82F80013C8
:104A3400F9D1704700E100E0002080F31488BFF34F
:104A44006F8F002080F30A8880F30B88FDF736F817
:104A540000200E490860BFF34F8F0D4880F308888B
:104A640000F03EF8202080F311880A484FF40061DA
:104A7400401880F30988EFF314800221084380F37F
:104A84001488BFF36F8FFFF789FB000094ED00E0FB
:104A940010450020D0370020BFF34F8F0549064B47
:104AA400CA6802F4E0621343CB60BFF34F8F00BFC8
:104AB400FDE700BF00ED00E00400FA0500231846FE
:104AC4000649D1F89020C2F30722934200DB7047D5
:104AD400C1F89830C1F8A0000133F6E700ED00E01A
:104AE40010B572B6002484F31388FFF7E7FF23465A
:104AF4004FF0FF300C4A03F120010133102B42F830
:104B04002100F8D100234FF0FF30074A03F1600180
:104B14000133102B42F82100F8D162B6BFF34F8F56
:104B2400BFF36F8F10BD00BF00E100E0084B9B682E
:104B340083420BD1EFF3058343B1064B5A6842F02D
:104B440080525A605A6A22F400425A6207F0CABA82
:104B5400EC1A002000ED00E01FB5094C094A234679
:104B64000121094800F034F900230393074B012184
:104B7400E41A01A80193029400F034F904B010BDC2
:104B8400000007200000002070140100C005002070
:104B940010B50C7A0B6804F01F0223F01F031A43AC
:104BA400CB68640923F01F03054943EA440343F037
:104BB4000103C1F89800C1F89C20C1F8A03010BDD1
:104BC40000ED00E080B500AF88B06A46084B536141
:104BD400084BC2E90630042342F8103F00234FF487
:104BE40001510548FDF7F2F96FF01500BD4680BD8F
:104BF4007F230100F72301006C1101002DE9F04F20
:104C0400144606464FF0000987B0614D00AF796045
:104C14007B68994539DAD6F80480B8F1000F58D08A
:104C2400B8F11F0F1DD918F01F0F1AD1D6F800B014
:104C34001BF01F0F15D1584609F0DBFD824608EB27
:104C44000B00013809F0D5FD824523D06FF0150A19
:104C54006C4688B06A464F4951614F49C2E9061A09
:104C640007E06C4688B06A464C4B53614A4BC2E934
:104C74000639042342F8103F00234FF401514848F9
:104C8400FDF7A4F9A5466FF0150420461C37BD4670
:104C9400BDE8F08F1AF1160FDAD05445D8DDC5F807
:104CA40098A0D5F89C00C5F898A0D5F8A02020F0CD
:104CB4001F0042F01F08D6E900211144904201F17F
:104CC400FF3B1ED1D84508D131465FFA8AF009F07E
:104CD40099FD09F101090C369AE7C5F898A0D5F8B1
:104CE4009C3021F01F0103F01F030B433146C5F82C
:104CF4009C30E0B209F086FD10F1160FC3D0441CBD
:104D0400E7E7013AD845E0B222F01F02C5F898A0BF
:104D140008D1D5F8A030314603F01F031343C5F87A
:104D2400A030E7E7D5F8A01001F01F010A43C5F849
:104D3400A020314609F066FD10F1160FA3D0C5F886
:104D440098A0D5F89C203B7C08F1FF3862F304035B
:104D54003B74D5F8A0303A7C5B0863F347123A748D
:104D6400D6E900321344BB6023F01F03441C4344C0
:104D7400A3EB0B03E0B223F01F0307287B6102D9E6
:104D8400FFF720FFB8E707F10801FFF701FFB6E7D7
:104D940000ED00E0D023010010240100A92301004C
:104DA4006C1101000522044BC3F89420BFF34F8F0C
:104DB400BFF36F8F704700BF00ED00E0BFF35F8F5C
:104DC4000022024BC3F89420704700BF00ED00E0BE
:104DD40010B5034C2278FFF711FF207010BD00BFFF
:104DE4000C1D00202DE9F74F294D8A4606464FF049
:104DF4000008AB46274FD0451BDAD6F80490B9F12A
:104E0400000F3FD031680846019109F0F2FC019986
:104E1400044609EB0100013809F0EBFC84424FF031
:104E240014021D4B08D002FB08F36FF015024BF877
:104E3400032003B0BDE8F08F14F1160F2C60F8D0F6
:104E44001978A142F5DD02FB08B0C7F89840C7F80D
:104E54009840D7F89C4000F10801007B64F30400FB
:104E64000871D7F8A0000C79400860F347140C715E
:104E7400D7F89C1021F01F016960D7F8A01021F029
:104E84001F01296108F1010814350C36B3E700BF8E
:104E94005818002000ED00E00C1D002038B50E4D20
:104EA4002C68082C15D80020FFF788FF0B4B0C4A00
:104EB400C3F8C020844205D10A4B00201C70FFF7C0
:104EC40071FF38BD696801EB0011FFF761FE013025
:104ED400F0E74FF0FF30F4E77C14010000ED00E050
:104EE400AAFF44000C1D0020014B1860704700BF4E
:104EF4002C0200201022044B0020C3F840244FF061
:104F04005023C3F814067047003000500E4B40295C
:104F140028BF402170B51D460C4C4618B04203F121
:104F2400020304D1002305F81130074870BD02784C
:104F34001209A25C03F8022C10F8012B02F00F02F4
:104F4400A25C03F8012CE9E72B1D00206F2401006B
:104F540030B503788BB0044607AD032B21D8DFE8C6
:104F640003F0021A1C1E1249284609F06BFC059531
:104F740063781E210493A3780E4A0393E3780E48C2
:104F840002932379019363790093A37907F021FEB7
:104F940009480BB030BD0949E6E70949E4E7094986
:104FA400E2E70A212846084A07F013FEDFE700BFBC
:104FB4004F180100711801000D1D00205618010042
:104FC4005D18010067180100BB270100B0B500AFF0
:104FD4006C4688B06A46144B144D536103239561A3
:104FE40042F8103F4FF4C65111480023FCF7EEFF7E
:104FF4001049A546CA791048C2EBC202FEF796FAD8
:1050040078B188B06A460D4BD061C2E905350423F6
:1050140042F8103F00234FF401510548FCF7D6FF36
:10502400A546BD46B0BD00BF80240100A7250100F0
:1050340014110100000000208E24010094240100BA
:105044002DE9F04182B0054616469846324C00AF31
:10505400D4E8AF3FD90735D598B96C4688B06A46CD
:105064002E4B53612E4B9361032342F8103F4FF4B0
:10507400C25103462B48FCF7A9FFA5466FF0010077
:1050840021E0391D09F09DF827490246284609F018
:1050940013FC03460028F1D1D4E8AF2FC2F3C005B6
:1050A400120714D56C4688B06A46204951611C49E0
:1050B4009161032142F8101F4FF4C4511948FCF7C1
:1050C40085FFA54600200837BD46BDE8F081883C31
:1050D400072221464046B047062817D86E4688B0B6
:1050E4006A46134B53610E4B9361032342F8103FFE
:1050F4004FF4C2512B460B48FCF768FF0722B54614
:105104002946204609F01DFCE571DBE70723B0FBC7
:10511400F3F0E071D6E700BF88000020B32401005B
:105124008B2501001411010064180100D82401002A
:1051340000250100014806F071BC00BF30020020C8
:105144002DE9F843224D00AFD5E8AF3F13F0010F2E
:105154002E463BD015F8818CA5F18809B8F1000FD3
:1051640022D101F017FA0446A0B16D4688B06A4610
:10517400184B5361184B9361032342F8103F4FF4CB
:10518400C25143461548FCF721FFAD462046BD46B3
:10519400BDE8F88399F80780B8F1000F04D101F055
:1051A40077FA04460028E0D1D5E8AF3F5A0701D486
:1051B40000F014FDD6E8EF3F23F48032C6E8E12F77
:1051C4000029F7D1DB0301D5FFF7B4FF0024DDE7A5
:1051D40088000020292501009725010014110100F1
:1051E400B0B500AFFEF7ECFA044688B16D4688B05E
:1051F4006A46094B5361094BC2E90630042342F85D
:10520400103F00234FF401510548FCF7DFFEAD4683
:105214002046BD46B0BD00BF512501007A250100DE
:105224001411010038B50546054809F0F8FB044699
:1052340020B101210C3009F0F9FB2576204638BD58
:105244009005002010B50B460A490246D1F8B80073
:1052540020B9BDE810400120FFF7E4BF09F019FCB4
:10526400012100230446017603820C3009F0DEFBA1
:10527400204610BD0000002070B505460E3D012DEE
:105284000C461046194603D8BDE87040FFF7DABF54
:1052940064B1094809F0C3FB044628B101210C306C
:1052A40009F0C4FB01232376204670BD0120BDE82C
:1052B4007040FFF7B7BF00BF3805002070B5064641
:1052C4008EB00A4D01AC0FCD0FC40FCD0FC40FCD5E
:1052D4000FC42B680C2E23609DBF0EAB03EB860618
:1052E40056F8340C02480EB070BD00BFF81101002E
:1052F400BE2501000B46B0B50D8A00AF0446294611
:10530400D868FFF703FE8CB06A460A4BC2E908501E
:105314005361094B4FF45251C2E9063440F203532E
:105324001385064B064842F8103F09F030FBBD4692
:10533400B0BD00BFC6250100F52B01000600000129
:10534400EC100100B0B5044600AF02EBC303934276
:1053540003D12046FFF7CEFF1AE0104610F8085B91
:10536400A5421BD10B8A5078984213D96D468AB056
:105374006A460B49146251610A490B48C2E9061393
:1053840005234FF4215142F8103F09F000FBAD46CC
:10539400BD46B0BD084653689847F9E70246D6E7CC
:1053A400EC250100E12B0100EC100100B0B53448FC
:1053B40000AF09F055FB044600284DD0037E012BB5
:1053C4004CD1038A012B0CD840F66D132D4A2E497B
:1053D4002E4808F000F8404080F311884FF0030095
:1053E40002DF022104F10C0009F077FB0378054683
:1053F4000E3B012B0CD840F67113224A2449234852
:1054040007F0E9FF404080F311884FF0030002DF0A
:10541400032321461F4A2878FFF794FF204601F012
:10542400F1FE1D4BD3F8BC30B3B11C491C480BF042
:105434002CF9002810DA6C4688B06A46194B4FF4F0
:1054440001515361184BC2E906300423174842F84E
:10545400103F09F09CFAA546BD46B0BD6D4688B024
:105464006A461349114851610F49C2E906130423DE
:105474004FF4015142F8103F09F089FAAD46CDE7E7
:10548400BC00002012260100462601005F26010010
:105494007C260100041501000000002054020020B5
:1054A400700E0020C2260100BC2B0100EC1001008C
:1054B400AA26010010B5012104460C3009F00DFBA9
:1054C4002146BDE810400523014A0078FFF73ABFA2
:1054D4001C15010080B5012100AF0C3009F0FDFA64
:1054E40088B06A4603780749074851610749C2E909
:1054F400061304234FF4015142F8103F09F047FA10
:10550400BD4680BDE3260100EC100100A92B01007B
:105514002DE9F843804600AF907A0E46144601F018
:10552400AFFD484D85421AD0A47A6E46204601F05C
:10553400A7FD8CB06A46444BC2E908405361434B13
:105544009562C2E9063807234FF46251404842F895
:10555400103F09F01CFAB546BD46BDE8F883204665
:1055640001F096FD4FF00C093A4D09FB00504388B9
:10557400434518D0204601F08BFD09FB00506C46D2
:105584008AB06A464388136205233349304851611F
:105594002E49C2E906184FF4225142F8103F09F08F
:1055A400F6F9A546D8E7DFF8B480D8F8B80020B1FA
:1055B40001F028FE0023C8F8B830204601F068FD49
:1055C4004FF00C0808FB00504368B3B1AEB9204655
:1055D40001F05EFD012308FB0050D0F804C0DCE9B3
:1055E400002000F01F0103FA01F19CF80830400983
:1055F400E3B102EB800009F0BFF9204601F048FD59
:105604004FF00C0808FB00508368002BA4D0204600
:1056140001F03EFD08FB00F02E54204601F038FD59
:1056240008FB0055A86806F0B5F895E7CB4302EBF4
:105634008002D2E8EF0F1840C2E8E10F0029DCD065
:10564400F7E700BF6405002009270100022C0100D0
:10565400EC1001006C18002042270100000000201B
:1056640038B5042104460C3009F037FA457801783E
:1056740022464088FFF74CFF25B1BDE83840024878
:1056840006F088B838BD00BFA000002038B503215B
:1056940004460C3009F021FAE368057822461978AB
:1056A400B0F80100FFF734FF25B1BDE838400248E7
:1056B40006F070B838BD00BFA000002010B5C1E9E5
:1056C40000239DF808300C460B7201F0E1FC0C221B
:1056D400024B02FB00335C6010BD00BF6C1800205D
:1056E4002DE9F0474FF0FF324FF0FF3306461748DD
:1056F4000F4609F094F94FF00008044600F10C0A33
:105704000121504609F092F9204684F8188001F0EE
:10571400BFFC4FF00C090E4D09FB0050468020469B
:1057240001F0B6FC09FB0050C0F80880204601F0E7
:10573400AFFC09FB005503215046C5F8048009F06D
:10574400ACF9068087702046BDE8F0876405002028
:105754006C1800202DE9F04387B0804615460C46AE
:1057640000AF21B9FFF7BCFF044600285CD001223A
:10577400002138460AF009FF204601F089FC0C2379
:10578400DFF8AC9003FB00908760204609F081F9B4
:105794000146284809F07BF94FF4A022002338463B
:1057A40006F01EF8064680B140F24913224A234906
:1057B400234807F010FE3146224807F00CFE404013
:1057C40080F311884FF0030002DF204601F060FCF3
:1057D4000C23584319F80060F6B16D468AB06A4646
:1057E400194B16625361194B4FF42251C2E9063822
:1057F4000523174842F8103F09F0C9F82046AD4682
:1058040001F000FD092E14BF6FF004006FF06E006C
:105814001C37BD46BDE8F08315B12C600020F7E7C6
:10582400204601F0EFFCF9E76FF06800F0E700BFF5
:105834006C180020C4000020122601007927010002
:105844005F26010082270100A22701000F2C01001E
:10585400EC100100F7B5144B054693F94F300C4694
:10586400002B1DDA14B9204603B0F0BD082C4FF00C
:10587400000142F2180001AA264628BF0826FFF7B5
:1058840069FF0028F0D1019F3246F96828460131AA
:1058940009F04CF8384601F0B5FC3544A41BE1E7A7
:1058A4006FF08500E0E700BF000000200138C0B2BF
:1058B40002289ABF014B185C00207047842A01001B
:1058C400024BD3F8DC305B69184700BF00000020AE
:1058D4002DE9F041504D514E00AFEB686FF3943316
:1058E400EB604FF0FF324FF0FF3301214A4806F0DE
:1058F4007DFE60B140F6E613494A4A494A4807F03A
:105904006AFD404080F311884FF0030002DFEB682A
:10591400C3F38633012B12D9042B13D06C4688B001
:105924006A464249424851614249C2E90613042386
:105934004FF4025142F8103F09F029F8A54606F049
:105944002FFBCAE72B7B002BF9D1002200233A4816
:1059540009F06AF8044600284FD04FF0FF334FF0A7
:10596400FF32364805F03CFFD6F8B8306BBB204612
:1059740009F08FF8C6F8B8002046FFF7A1FF002809
:10598400DDD0E84688B06A462D4B4FF4015153618F
:105994002C4BC2E906300423254842F8103F08F096
:1059A400F6FFC546254805F0F5FE204601F070FBDC
:1059B4000C22254B1F2102FB003022464088FFF7B2
:1059C400A7FD204601F01EFCB9E7E84688B06A4608
:1059D4001E4B4FF4C25153611A4B15489361032374
:1059E40042F8103F08F0D3FFC546D6F8B80001F0DE
:1059F40009FC0023C6F8B830B9E74FF41863084A25
:105A04001349094807F0E7FC404080F311884FF040
:105A1400030002DFA1E700BF4002002000000020D5
:105A240012260100792701005F260100E827010002
:105A3400EC100100902A0100C4000020A000002006
:105A4400C2270100872A01006C1800200D280100DC
:105A5400A02F01002DE9F041044600F10C06304668
:105A640009F04BF8278A0546012F0CD840F67B53E2
:105A74001F4A2049204807F0AEFC404080F31188BB
:105A84004FF0030002DF3046022109F026F80378C4
:105A94000646052B21D00E3B012B21D940F67F531E
:105AA400134A1649144807F096FC404080F31188C5
:105AB4004FF0030002DF4FF0020802232146104A90
:105AC4003078FFF73FFC18F0020F0CD0636927828F
:105AD40013FA85F5E560BDE8F0814FF00308ECE7C3
